{
  "_format": "hh-sol-artifact-1",
  "contractName": "DathleteFacet",
  "sourceName": "contracts/facets/DathleteFacet.sol",
  "abi": [
    {
      "inputs": [
        {
          "internalType": "address",
          "name": "_owner",
          "type": "address"
        }
      ],
      "name": "allDathletesOfOwner",
      "outputs": [
        {
          "components": [
            {
              "internalType": "uint256",
              "name": "tokenId",
              "type": "uint256"
            },
            {
              "internalType": "address",
              "name": "owner",
              "type": "address"
            },
            {
              "internalType": "bool",
              "name": "locked",
              "type": "bool"
            },
            {
              "internalType": "uint32",
              "name": "seasonId",
              "type": "uint32"
            },
            {
              "components": [
                {
                  "internalType": "uint256",
                  "name": "balance",
                  "type": "uint256"
                },
                {
                  "internalType": "uint256",
                  "name": "challengeId",
                  "type": "uint256"
                },
                {
                  "components": [
                    {
                      "internalType": "string",
                      "name": "name",
                      "type": "string"
                    },
                    {
                      "internalType": "string",
                      "name": "description",
                      "type": "string"
                    },
                    {
                      "internalType": "uint256",
                      "name": "maxQuantity",
                      "type": "uint256"
                    },
                    {
                      "internalType": "uint256",
                      "name": "totalQuantity",
                      "type": "uint256"
                    },
                    {
                      "internalType": "uint32",
                      "name": "id",
                      "type": "uint32"
                    },
                    {
                      "internalType": "bool",
                      "name": "canPurchaseWithPrtcle",
                      "type": "bool"
                    },
                    {
                      "internalType": "uint256",
                      "name": "prtclePrice",
                      "type": "uint256"
                    },
                    {
                      "internalType": "bool",
                      "name": "canBeTransferred",
                      "type": "bool"
                    }
                  ],
                  "internalType": "struct ChallengeType",
                  "name": "challengeType",
                  "type": "tuple"
                }
              ],
              "internalType": "struct ChallengeTypeIO[]",
              "name": "challenges",
              "type": "tuple[]"
            }
          ],
          "internalType": "struct DathleteInfo[]",
          "name": "dathleteInfos_",
          "type": "tuple[]"
        }
      ],
      "stateMutability": "view",
      "type": "function"
    },
    {
      "inputs": [
        {
          "internalType": "address",
          "name": "_approved",
          "type": "address"
        },
        {
          "internalType": "uint256",
          "name": "_tokenId",
          "type": "uint256"
        }
      ],
      "name": "approve",
      "outputs": [],
      "stateMutability": "nonpayable",
      "type": "function"
    },
    {
      "inputs": [
        {
          "internalType": "address",
          "name": "_owner",
          "type": "address"
        }
      ],
      "name": "balanceOf",
      "outputs": [
        {
          "internalType": "uint256",
          "name": "balance_",
          "type": "uint256"
        }
      ],
      "stateMutability": "view",
      "type": "function"
    },
    {
      "inputs": [
        {
          "internalType": "uint256",
          "name": "_tokenId",
          "type": "uint256"
        }
      ],
      "name": "getApproved",
      "outputs": [
        {
          "internalType": "address",
          "name": "approved_",
          "type": "address"
        }
      ],
      "stateMutability": "view",
      "type": "function"
    },
    {
      "inputs": [
        {
          "internalType": "uint256",
          "name": "_tokenId",
          "type": "uint256"
        }
      ],
      "name": "getDathlete",
      "outputs": [
        {
          "components": [
            {
              "internalType": "uint256",
              "name": "tokenId",
              "type": "uint256"
            },
            {
              "internalType": "address",
              "name": "owner",
              "type": "address"
            },
            {
              "internalType": "bool",
              "name": "locked",
              "type": "bool"
            },
            {
              "internalType": "uint32",
              "name": "seasonId",
              "type": "uint32"
            },
            {
              "components": [
                {
                  "internalType": "uint256",
                  "name": "balance",
                  "type": "uint256"
                },
                {
                  "internalType": "uint256",
                  "name": "challengeId",
                  "type": "uint256"
                },
                {
                  "components": [
                    {
                      "internalType": "string",
                      "name": "name",
                      "type": "string"
                    },
                    {
                      "internalType": "string",
                      "name": "description",
                      "type": "string"
                    },
                    {
                      "internalType": "uint256",
                      "name": "maxQuantity",
                      "type": "uint256"
                    },
                    {
                      "internalType": "uint256",
                      "name": "totalQuantity",
                      "type": "uint256"
                    },
                    {
                      "internalType": "uint32",
                      "name": "id",
                      "type": "uint32"
                    },
                    {
                      "internalType": "bool",
                      "name": "canPurchaseWithPrtcle",
                      "type": "bool"
                    },
                    {
                      "internalType": "uint256",
                      "name": "prtclePrice",
                      "type": "uint256"
                    },
                    {
                      "internalType": "bool",
                      "name": "canBeTransferred",
                      "type": "bool"
                    }
                  ],
                  "internalType": "struct ChallengeType",
                  "name": "challengeType",
                  "type": "tuple"
                }
              ],
              "internalType": "struct ChallengeTypeIO[]",
              "name": "challenges",
              "type": "tuple[]"
            }
          ],
          "internalType": "struct DathleteInfo",
          "name": "dathleteInfo_",
          "type": "tuple"
        }
      ],
      "stateMutability": "view",
      "type": "function"
    },
    {
      "inputs": [
        {
          "internalType": "address",
          "name": "_owner",
          "type": "address"
        },
        {
          "internalType": "address",
          "name": "_operator",
          "type": "address"
        }
      ],
      "name": "isApprovedForAll",
      "outputs": [
        {
          "internalType": "bool",
          "name": "approved_",
          "type": "bool"
        }
      ],
      "stateMutability": "view",
      "type": "function"
    },
    {
      "inputs": [],
      "name": "name",
      "outputs": [
        {
          "internalType": "string",
          "name": "",
          "type": "string"
        }
      ],
      "stateMutability": "view",
      "type": "function"
    },
    {
      "inputs": [
        {
          "internalType": "uint256",
          "name": "_tokenId",
          "type": "uint256"
        }
      ],
      "name": "ownerOf",
      "outputs": [
        {
          "internalType": "address",
          "name": "owner_",
          "type": "address"
        }
      ],
      "stateMutability": "view",
      "type": "function"
    },
    {
      "inputs": [
        {
          "internalType": "address",
          "name": "_from",
          "type": "address"
        },
        {
          "internalType": "address",
          "name": "_to",
          "type": "address"
        },
        {
          "internalType": "uint256[]",
          "name": "_tokenIds",
          "type": "uint256[]"
        },
        {
          "internalType": "bytes",
          "name": "_data",
          "type": "bytes"
        }
      ],
      "name": "safeBatchTransferFrom",
      "outputs": [],
      "stateMutability": "nonpayable",
      "type": "function"
    },
    {
      "inputs": [
        {
          "internalType": "address",
          "name": "_from",
          "type": "address"
        },
        {
          "internalType": "address",
          "name": "_to",
          "type": "address"
        },
        {
          "internalType": "uint256",
          "name": "_tokenId",
          "type": "uint256"
        }
      ],
      "name": "safeTransferFrom",
      "outputs": [],
      "stateMutability": "nonpayable",
      "type": "function"
    },
    {
      "inputs": [
        {
          "internalType": "address",
          "name": "_from",
          "type": "address"
        },
        {
          "internalType": "address",
          "name": "_to",
          "type": "address"
        },
        {
          "internalType": "uint256",
          "name": "_tokenId",
          "type": "uint256"
        },
        {
          "internalType": "bytes",
          "name": "_data",
          "type": "bytes"
        }
      ],
      "name": "safeTransferFrom",
      "outputs": [],
      "stateMutability": "nonpayable",
      "type": "function"
    },
    {
      "inputs": [
        {
          "internalType": "address",
          "name": "_operator",
          "type": "address"
        },
        {
          "internalType": "bool",
          "name": "_approved",
          "type": "bool"
        }
      ],
      "name": "setApprovalForAll",
      "outputs": [],
      "stateMutability": "nonpayable",
      "type": "function"
    },
    {
      "inputs": [],
      "name": "symbol",
      "outputs": [
        {
          "internalType": "string",
          "name": "",
          "type": "string"
        }
      ],
      "stateMutability": "view",
      "type": "function"
    },
    {
      "inputs": [
        {
          "internalType": "uint256",
          "name": "_index",
          "type": "uint256"
        }
      ],
      "name": "tokenByIndex",
      "outputs": [
        {
          "internalType": "uint256",
          "name": "tokenId_",
          "type": "uint256"
        }
      ],
      "stateMutability": "view",
      "type": "function"
    },
    {
      "inputs": [
        {
          "internalType": "address",
          "name": "_owner",
          "type": "address"
        }
      ],
      "name": "tokenIdsOfOwner",
      "outputs": [
        {
          "internalType": "uint32[]",
          "name": "tokenIds_",
          "type": "uint32[]"
        }
      ],
      "stateMutability": "view",
      "type": "function"
    },
    {
      "inputs": [
        {
          "internalType": "address",
          "name": "_owner",
          "type": "address"
        },
        {
          "internalType": "uint256",
          "name": "_index",
          "type": "uint256"
        }
      ],
      "name": "tokenOfOwnerByIndex",
      "outputs": [
        {
          "internalType": "uint256",
          "name": "tokenId_",
          "type": "uint256"
        }
      ],
      "stateMutability": "view",
      "type": "function"
    },
    {
      "inputs": [
        {
          "internalType": "uint256",
          "name": "_tokenId",
          "type": "uint256"
        }
      ],
      "name": "tokenURI",
      "outputs": [
        {
          "internalType": "string",
          "name": "",
          "type": "string"
        }
      ],
      "stateMutability": "view",
      "type": "function"
    },
    {
      "inputs": [],
      "name": "totalSupply",
      "outputs": [
        {
          "internalType": "uint256",
          "name": "totalSupply_",
          "type": "uint256"
        }
      ],
      "stateMutability": "view",
      "type": "function"
    },
    {
      "inputs": [
        {
          "internalType": "address",
          "name": "_from",
          "type": "address"
        },
        {
          "internalType": "address",
          "name": "_to",
          "type": "address"
        },
        {
          "internalType": "uint256",
          "name": "_tokenId",
          "type": "uint256"
        }
      ],
      "name": "transferFrom",
      "outputs": [],
      "stateMutability": "nonpayable",
      "type": "function"
    }
  ],
  "bytecode": "0x608060405234801561001057600080fd5b50611e67806100206000396000f3fe608060405234801561001057600080fd5b50600436106101215760003560e01c80634f6ccce7116100ad578063a22cb46511610071578063a22cb4651461025b578063b88d4fde1461026e578063c5dbd26014610281578063c87b56dd146102a1578063e985e9c5146102b457610121565b80634f6ccce7146101fa5780636352211e1461020d57806370a082311461022057806395d89b41146102335780639e59e5981461023b57610121565b80631aa62b59116100f45780631aa62b591461018e57806323b872dd146101ae57806328cfbd46146101c15780632f745c59146101d457806342842e0e146101e757610121565b806306fdde0314610126578063081812fc14610144578063095ea7b31461016457806318160ddd14610179575b600080fd5b61012e6102d4565b60405161013b9190611a19565b60405180910390f35b610157610152366004611761565b610369565b60405161013b9190611913565b610177610172366004611710565b6103b2565b005b610181610473565b60405161013b9190611d4a565b6101a161019c366004611761565b610479565b60405161013b9190611d37565b6101776101bc36600461162e565b610490565b6101776101cf366004611573565b6104a1565b6101816101e2366004611710565b610544565b6101776101f536600461162e565b6105de565b610181610208366004611761565b61060d565b61015761021b366004611761565b61067d565b61018161022e366004611520565b6106b7565b61012e6106fb565b61024e610249366004611520565b61070d565b60405161013b91906119c4565b6101776102693660046116d6565b6107a5565b61017761027c366004611669565b610814565b61029461028f366004611520565b61086c565b60405161013b9190611964565b61012e6102af366004611761565b6109a1565b6102c76102c2366004611541565b6109ea565b60405161013b9190611a0e565b6060600060110180546102e690611dc5565b80601f016020809104026020016040519081016040528092919081815260200182805461031290611dc5565b801561035f5780601f106103345761010080835404028352916020019161035f565b820191906000526020600020905b81548152906001019060200180831161034257829003601f168201915b5050505050905090565b600b5460009082106103965760405162461bcd60e51b815260040161038d90611ac4565b60405180910390fd5b506000908152600e60205260409020546001600160a01b031690565b6000818152600860205260409020546001600160a01b0316338114806103fb57506001600160a01b0381166000908152600d6020908152604080832033845290915290205460ff165b6104175760405162461bcd60e51b815260040161038d90611c56565b6000828152600e602052604080822080546001600160a01b0319166001600160a01b0387811691821790925591518593918516917f8c5be1e5ebec7d5bd14f71427d1e84f3dd0314c0f7b2291e5b200ac8c7c3b92591a4505050565b600b5490565b61048161140d565b61048a82610a18565b92915050565b61049c33848484610a7e565b505050565b3360005b8481101561053a5760008686838181106104cf57634e487b7160e01b600052603260045260246000fd5b9050602002013590506104e4838a8a84610a7e565b610527838a8a8489898080601f016020809104026020016040519081016040528093929190818152602001838380828437600092019190915250610b9392505050565b508061053281611e00565b9150506104a5565b5050505050505050565b6001600160a01b038216600090815260096020526040812054821061057b5760405162461bcd60e51b815260040161038d90611c0d565b6001600160a01b03831660009081526009602052604090208054839081106105b357634e487b7160e01b600052603260045260246000fd5b6000918252602090912060088204015460079091166004026101000a900463ffffffff169392505050565b336105eb81858585610a7e565b6106078185858560405180602001604052806000815250610b93565b50505050565b600b5460009082106106315760405162461bcd60e51b815260040161038d90611afb565b600b80548390811061065357634e487b7160e01b600052603260045260246000fd5b6000918252602090912060088204015460079091166004026101000a900463ffffffff1692915050565b6000818152600860205260409020546001600160a01b0316806106b25760405162461bcd60e51b815260040161038d90611b84565b919050565b60006001600160a01b0382166106df5760405162461bcd60e51b815260040161038d90611a2c565b506001600160a01b031660009081526009602052604090205490565b6060600060120180546102e690611dc5565b6001600160a01b03811660009081526009602090815260409182902080548351818402810184019094528084526060939283018282801561079957602002820191906000526020600020906000905b82829054906101000a900463ffffffff1663ffffffff168152602001906004019060208260030104928301926001038202915080841161075c5790505b50505050509050919050565b336000818152600d602090815260408083206001600160a01b038716808552925291829020805460ff191685151517905590519091907f17307eab39ab6107e8899845ad3d59bd9653f200f220920489ca2b5937696c3190610808908590611a0e565b60405180910390a35050565b3361082181878787610a7e565b6108648187878787878080601f016020809104026020016040519081016040528093929190818152602001838380828437600092019190915250610b9392505050565b505050505050565b6001600160a01b0381166000908152600960205260409020546060908067ffffffffffffffff8111156108af57634e487b7160e01b600052604160045260246000fd5b6040519080825280602002602001820160405280156108e857816020015b6108d561140d565b8152602001906001900390816108cd5790505b50915060005b8181101561099a576001600160a01b0384166000908152600960205260409020805461095c91908390811061093357634e487b7160e01b600052603260045260246000fd5b6000918252602090912060088204015460079091166004026101000a900463ffffffff16610a18565b83828151811061097c57634e487b7160e01b600052603260045260246000fd5b6020026020010181905250808061099290611e00565b9150506108ee565b5050919050565b606060006109ae83610a18565b905060006109bf8260000151610c4e565b9050806040516020016109d291906118e2565b60405160208183030381529060405292505050919050565b6001600160a01b039182166000908152600d6020908152604080832093909416825291909152205460ff1690565b610a2061140d565b6000610a2a610d7c565b83835260008481526008820160208181526040808420546001600160a01b0381168389015293889052919052600160a01b90910460ff161515908401529050610a733084610d81565b608083015250919050565b6001600160a01b038216610aa45760405162461bcd60e51b815260040161038d90611ced565b6001600160a01b038316610aca5760405162461bcd60e51b815260040161038d90611b3d565b6000818152600860205260409020546001600160a01b03848116911614610b035760405162461bcd60e51b815260040161038d90611bbb565b826001600160a01b0316846001600160a01b03161480610b4857506001600160a01b038084166000908152600d602090815260408083209388168352929052205460ff165b80610b6c57506000818152600e60205260409020546001600160a01b038581169116145b610b885760405162461bcd60e51b815260040161038d90611c9d565b610607838383611105565b823b801561086457604051630a85bd0160e11b81526001600160a01b0385169063150b7a0290610bcd908990899088908890600401611927565b602060405180830381600087803b158015610be757600080fd5b505af1158015610bfb573d6000803e3d6000fd5b505050506040513d601f19601f82011682018060405250810190610c1f9190611739565b6001600160e01b031916630a85bd0160e11b146108645760405162461bcd60e51b815260040161038d90611a74565b606081610c7357506040805180820190915260018152600360fc1b60208201526106b2565b8160005b8115610c965780610c8781611e00565b915050600482901c9150610c77565b600f60008267ffffffffffffffff811115610cc157634e487b7160e01b600052604160045260246000fd5b6040519080825280601f01601f191660200182016040528015610ceb576020820181803683370190505b509050825b8615610d725786831660098111610d1457610d0c816030611d53565b60f81b610d23565b610d1f816037611d53565b60f81b5b83610d2d84611dae565b93508381518110610d4e57634e487b7160e01b600052603260045260246000fd5b60200101906001600160f81b031916908160001a905350600488901c975050610cf0565b5095945050505050565b600090565b60606000610d8d610d7c565b6001600160a01b038516600090815260018201602090815260408083208784529091529020549091508067ffffffffffffffff811115610ddd57634e487b7160e01b600052604160045260246000fd5b604051908082528060200260200182016040528015610e1657816020015b610e0361144d565b815260200190600190039081610dfb5790505b50925060005b818110156110fc576001600160a01b038616600090815260018401602090815260408083208884529091528120805483908110610e6957634e487b7160e01b600052603260045260246000fd5b60009182526020808320909101546001600160a01b038a16835286825260408084208a855283528084208285529092529120548651919250908290879085908110610ec457634e487b7160e01b600052603260045260246000fd5b6020026020010151602001818152505080868481518110610ef557634e487b7160e01b600052603260045260246000fd5b60209081029190910101515260028501805483908110610f2557634e487b7160e01b600052603260045260246000fd5b906000526020600020906007020160405180610100016040529081600082018054610f4f90611dc5565b80601f0160208091040260200160405190810160405280929190818152602001828054610f7b90611dc5565b8015610fc85780601f10610f9d57610100808354040283529160200191610fc8565b820191906000526020600020905b815481529060010190602001808311610fab57829003601f168201915b50505050508152602001600182018054610fe190611dc5565b80601f016020809104026020016040519081016040528092919081815260200182805461100d90611dc5565b801561105a5780601f1061102f5761010080835404028352916020019161105a565b820191906000526020600020905b81548152906001019060200180831161103d57829003601f168201915b50505091835250506002820154602082015260038201546040820152600482015463ffffffff8116606083015260ff640100000000909104811615156080830152600583015460a0830152600690920154909116151560c09091015286518790859081106110d857634e487b7160e01b600052603260045260246000fd5b602002602001015160400181905250505080806110f490611e00565b915050610e1c565b50505092915050565b600061110f610d7c565b6001600160a01b0385166000818152600a83016020908152604080832087845282528083205493835260098501909152812054929350909161115390600190611d6b565b905080821461125f576001600160a01b0386166000908152600984016020526040812080548390811061119657634e487b7160e01b600052603260045260246000fd5b90600052602060002090600891828204019190066004029054906101000a900463ffffffff16905080846009016000896001600160a01b03166001600160a01b03168152602001908152602001600020848154811061120557634e487b7160e01b600052603260045260246000fd5b600091825260208083206008830401805460079093166004026101000a63ffffffff8181021990941695841602949094179093556001600160a01b038a168252600a87018352604080832094909116825292909152208290555b6001600160a01b0386166000908152600984016020526040902080548061129657634e487b7160e01b600052603160045260246000fd5b60008281526020808220600860001990940193840401805463ffffffff600460078716026101000a0219169055919092556001600160a01b038089168352600a8601825260408084208885528352808420849055600e8701909252912054161561134e576000848152600e8401602052604080822080546001600160a01b0319169055518591906001600160a01b038916907f8c5be1e5ebec7d5bd14f71427d1e84f3dd0314c0f7b2291e5b200ac8c7c3b925908390a45b600084815260088481016020908152604080842080546001600160a01b0319166001600160a01b038b8116918217909255808652600989018085528387208054600a8c0187528589208d8a5287528589208190559186526001820181558752938620948404909401805460079094166004026101000a63ffffffff81810219909516948b160293909317909255518793918a16917fddf252ad1be2c89b69c2b068fc378daa952ba7f163c4a11628f55a4df523b3ef91a4505050505050565b6040518060a001604052806000815260200160006001600160a01b03168152602001600015158152602001600063ffffffff168152602001606081525090565b6040518060600160405280600081526020016000815260200161146e611473565b905290565b60405180610100016040528060608152602001606081526020016000815260200160008152602001600063ffffffff168152602001600015158152602001600081526020016000151581525090565b80356001600160a01b03811681146106b257600080fd5b60008083601f8401126114ea578182fd5b50813567ffffffffffffffff811115611501578182fd5b60208301915083602082850101111561151957600080fd5b9250929050565b600060208284031215611531578081fd5b61153a826114c2565b9392505050565b60008060408385031215611553578081fd5b61155c836114c2565b915061156a602084016114c2565b90509250929050565b6000806000806000806080878903121561158b578182fd5b611594876114c2565b95506115a2602088016114c2565b9450604087013567ffffffffffffffff808211156115be578384fd5b818901915089601f8301126115d1578384fd5b8135818111156115df578485fd5b8a602080830285010111156115f2578485fd5b60208301965080955050606089013591508082111561160f578384fd5b5061161c89828a016114d9565b979a9699509497509295939492505050565b600080600060608486031215611642578283fd5b61164b846114c2565b9250611659602085016114c2565b9150604084013590509250925092565b600080600080600060808688031215611680578081fd5b611689866114c2565b9450611697602087016114c2565b935060408601359250606086013567ffffffffffffffff8111156116b9578182fd5b6116c5888289016114d9565b969995985093965092949392505050565b600080604083850312156116e8578182fd5b6116f1836114c2565b915060208301358015158114611705578182fd5b809150509250929050565b60008060408385031215611722578182fd5b61172b836114c2565b946020939093013593505050565b60006020828403121561174a578081fd5b81516001600160e01b03198116811461153a578182fd5b600060208284031215611772578081fd5b5035919050565b15159052565b60008151808452611797816020860160208601611d82565b601f01601f19169290920160200192915050565b600060a080840183518552602060018060a01b0381860151168187015260408086015115158188015260608087015163ffffffff808216838b0152608091508189015187838c015286815180895260c09850888d019150888882028e010188840193508b5b828110156118d0578e820360bf190184528451805183528a8101518b84015289015189830189905280516101008a850181905261185161016086018361177f565b91508c830151605f19868403018b87015261186c838261177f565b9250508b8301518f8601528a8301518e8601528983015189811660e0870152508e83015161189c82870182611779565b50508c82015161012085015260e082015191506118bd610140850183611779565b958b0195948b0194925050600101611810565b509d9c50505050505050505050505050565b6000680697066733a2f2f66360bc1b82528251611906816009850160208701611d82565b9190910160090192915050565b6001600160a01b0391909116815260200190565b6001600160a01b038581168252841660208201526040810183905260806060820181905260009061195a9083018461177f565b9695505050505050565b6000602080830181845280855180835260408601915060408482028701019250838701855b828110156119b757603f198886030184526119a58583516117ab565b94509285019290850190600101611989565b5092979650505050505050565b6020808252825182820181905260009190848201906040850190845b81811015611a0257835163ffffffff16835292840192918401916001016119e0565b50909695505050505050565b901515815260200190565b60006020825261153a602083018461177f565b60208082526028908201527f446174686c65746546616365743a205f6f776e65722063616e27742062652061604082015267064647265737328360c41b606082015260800190565b60208082526030908201527f41617665676f7463686946616365743a205472616e736665722072656a65637460408201526f65642f6661696c6564206279205f746f60801b606082015260800190565b6020808252601a908201527f4552433732313a20746f6b656e496420697320696e76616c6964000000000000604082015260600190565b60208082526022908201527f446174686c65746546616365743a20696e646578206265796f6e6420737570706040820152616c7960f01b606082015260800190565b60208082526027908201527f446174686c65746546616365743a205f66726f6d2063616e27742062652030206040820152666164647265737360c81b606082015260800190565b6020808252601f908201527f446174686c65746546616365743a20696e76616c6964205f746f6b656e496400604082015260600190565b60208082526032908201527f446174686c65746546616365743a205f66726f6d206973206e6f74206f776e656040820152711c8b081d1c985b9cd9995c8819985a5b195960721b606082015260800190565b60208082526029908201527f446174686c65746546616365743a20696e646578206265796f6e64206f776e65604082015268722062616c616e636560b81b606082015260800190565b60208082526027908201527f4552433732313a204e6f74206f776e6572206f72206f70657261746f72206f66604082015266103a37b5b2b71760c91b606082015260800190565b60208082526030908201527f446174686c65746546616365743a204e6f74206f776e6572206f72206170707260408201526f37bb32b2103a37903a3930b739b332b960811b606082015260800190565b6020808252602a908201527f446174686c65746546616365743a2043616e2774207472616e7366657220746f6040820152692030206164647265737360b01b606082015260800190565b60006020825261153a60208301846117ab565b90815260200190565b60008219821115611d6657611d66611e1b565b500190565b600082821015611d7d57611d7d611e1b565b500390565b60005b83811015611d9d578181015183820152602001611d85565b838111156106075750506000910152565b600081611dbd57611dbd611e1b565b506000190190565b600281046001821680611dd957607f821691505b60208210811415611dfa57634e487b7160e01b600052602260045260246000fd5b50919050565b6000600019821415611e1457611e14611e1b565b5060010190565b634e487b7160e01b600052601160045260246000fdfea264697066735822122023e75db84595fd9770b1ce26a9544cf135c72d5c7f2e68da3271e6723275f7b364736f6c63430008010033",
  "linkReferences": {},
  "deployedLinkReferences": {}
}