{
  "_format": "hh-sol-artifact-1",
  "contractName": "ShopFacet",
  "sourceName": "contracts/facets/ShopFacet.sol",
  "abi": [
    {
      "anonymous": false,
      "inputs": [
        {
          "indexed": true,
          "internalType": "address",
          "name": "_from",
          "type": "address"
        },
        {
          "indexed": true,
          "internalType": "address",
          "name": "_to",
          "type": "address"
        },
        {
          "indexed": false,
          "internalType": "uint256",
          "name": "_tokenId",
          "type": "uint256"
        },
        {
          "indexed": false,
          "internalType": "uint256",
          "name": "_numDathletesToPurchase",
          "type": "uint256"
        },
        {
          "indexed": false,
          "internalType": "uint256",
          "name": "_totalPrice",
          "type": "uint256"
        }
      ],
      "name": "BuyDathletes",
      "type": "event"
    },
    {
      "anonymous": false,
      "inputs": [
        {
          "indexed": true,
          "internalType": "address",
          "name": "_from",
          "type": "address"
        },
        {
          "indexed": true,
          "internalType": "address",
          "name": "_to",
          "type": "address"
        },
        {
          "indexed": false,
          "internalType": "uint256",
          "name": "_tokenId",
          "type": "uint256"
        },
        {
          "indexed": false,
          "internalType": "uint256",
          "name": "_numDathletesToPurchase",
          "type": "uint256"
        },
        {
          "indexed": false,
          "internalType": "uint256",
          "name": "seasonId",
          "type": "uint256"
        }
      ],
      "name": "MintDathletes",
      "type": "event"
    },
    {
      "anonymous": false,
      "inputs": [
        {
          "indexed": true,
          "internalType": "address",
          "name": "_buyer",
          "type": "address"
        },
        {
          "indexed": true,
          "internalType": "address",
          "name": "_to",
          "type": "address"
        },
        {
          "indexed": false,
          "internalType": "uint256[]",
          "name": "_challengeIds",
          "type": "uint256[]"
        },
        {
          "indexed": false,
          "internalType": "uint256[]",
          "name": "_quantities",
          "type": "uint256[]"
        },
        {
          "indexed": false,
          "internalType": "uint256",
          "name": "_totalPrice",
          "type": "uint256"
        }
      ],
      "name": "PurchaseChallengesWithPrtcle",
      "type": "event"
    },
    {
      "anonymous": false,
      "inputs": [
        {
          "indexed": true,
          "internalType": "address",
          "name": "_buyer",
          "type": "address"
        },
        {
          "indexed": true,
          "internalType": "address",
          "name": "_to",
          "type": "address"
        },
        {
          "indexed": false,
          "internalType": "uint256[]",
          "name": "_challengeIds",
          "type": "uint256[]"
        },
        {
          "indexed": false,
          "internalType": "uint256[]",
          "name": "_quantities",
          "type": "uint256[]"
        },
        {
          "indexed": false,
          "internalType": "uint256",
          "name": "_totalPrice",
          "type": "uint256"
        }
      ],
      "name": "PurchaseTransferChallengesWithPrtcle",
      "type": "event"
    },
    {
      "inputs": [
        {
          "internalType": "address",
          "name": "_to",
          "type": "address"
        },
        {
          "internalType": "uint256",
          "name": "_prtcle",
          "type": "uint256"
        }
      ],
      "name": "buyDathletes",
      "outputs": [],
      "stateMutability": "nonpayable",
      "type": "function"
    },
    {
      "inputs": [
        {
          "internalType": "address",
          "name": "_to",
          "type": "address"
        },
        {
          "internalType": "uint256",
          "name": "_amount",
          "type": "uint256"
        }
      ],
      "name": "mintDathletes",
      "outputs": [],
      "stateMutability": "nonpayable",
      "type": "function"
    },
    {
      "inputs": [
        {
          "internalType": "address",
          "name": "_to",
          "type": "address"
        },
        {
          "internalType": "uint256[]",
          "name": "_challengeIds",
          "type": "uint256[]"
        },
        {
          "internalType": "uint256[]",
          "name": "_quantities",
          "type": "uint256[]"
        }
      ],
      "name": "purchaseChallengesWithPrtcle",
      "outputs": [],
      "stateMutability": "nonpayable",
      "type": "function"
    },
    {
      "inputs": [
        {
          "internalType": "address",
          "name": "_to",
          "type": "address"
        },
        {
          "internalType": "uint256[]",
          "name": "_challengeIds",
          "type": "uint256[]"
        },
        {
          "internalType": "uint256[]",
          "name": "_quantities",
          "type": "uint256[]"
        }
      ],
      "name": "purchaseTransferChallengesWithPrtcle",
      "outputs": [],
      "stateMutability": "nonpayable",
      "type": "function"
    }
  ],
  "bytecode": "0x608060405234801561001057600080fd5b50611e37806100206000396000f3fe608060405234801561001057600080fd5b506004361061004c5760003560e01c8063139ecbf2146100515780631dc8cd3014610066578063aaa11a9214610079578063e8905e4c1461008c575b600080fd5b61006461005f3660046115a9565b61009f565b005b6100646100743660046115a9565b6105ac565b61006461008736600461152b565b610927565b61006461009a36600461152b565b610c20565b600f54640100000000900461ffff16600181146100d75760405162461bcd60e51b81526004016100ce90611b1c565b60405180910390fd5b600081815260046020526040902060018101548084101561010a5760405162461bcd60e51b81526004016100ce90611b66565b6101126114a8565b61011d826005611d4a565b815261012a826002611d4a565b61013590600a611d4a565b81516101419190611d12565b6020820152610151826003611d4a565b61015c90600a611d4a565b602082015161016b9190611d12565b604082018190528511156101915760405162461bcd60e51b81526004016100ce906117ce565b80513390600090819088116101bd576101aa8589611d2a565b91506101b68583611d4a565b905061027a565b60208401518811610220576101d3856002611d4a565b84516101df908a611d69565b6101e99190611d2a565b91506101f6856002611d4a565b6102009083611d4a565b845161020c9190611d12565b9050610219600583611d12565b915061027a565b61022b856003611d4a565b602085015161023a908a611d69565b6102449190611d2a565b9150610251856003611d4a565b61025b9083611d4a565b602085015161026a9190611d12565b9050610277600f83611d12565b91505b600286015460009061029290849062ffffff16611d12565b87549091508111156102b65760405162461bcd60e51b81526004016100ce90611a62565b60008881526004602052604090819020600201805462ffffff191662ffffff8416179055600f54905163ffffffff909116906001600160a01b038c811691908716907f0f362cfdf6d0e1df0f8269cd8f20519e090f5cb19fe2d132b59f4b0e9283d32e9061032990859089908990611cf4565b60405180910390a360005b8481101561057f578b600060080160008463ffffffff16815260200190815260200160002060000160006101000a8154816001600160a01b0302191690836001600160a01b0316021790555089600060080160008463ffffffff16815260200190815260200160002060000160156101000a81548161ffff021916908361ffff1602179055506000600b01805490506000600c0160008463ffffffff168152602001908152602001600020819055506000600b018290806001815401808255809150506001900390600052602060002090600891828204019190066004029091909190916101000a81548163ffffffff021916908363ffffffff160217905550600060090160008d6001600160a01b03166001600160a01b03168152602001908152602001600020805490506000600a0160008e6001600160a01b03166001600160a01b0316815260200190815260200160002060008463ffffffff16815260200190815260200160002081905550600060090160008d6001600160a01b03166001600160a01b031681526020019081526020016000208290806001815401808255809150506001900390600052602060002090600891828204019190066004029091909190916101000a81548163ffffffff021916908363ffffffff1602179055508163ffffffff168c6001600160a01b031660006001600160a01b03167fddf252ad1be2c89b69c2b068fc378daa952ba7f163c4a11628f55a4df523b3ef60405160405180910390a48161056981611dc7565b925050808061057790611dac565b915050610334565b50600f805463ffffffff191663ffffffff831617905561059f8584610f08565b5050505050505050505050565b3360008181526016602052604090205460ff1615156001146105e05760405162461bcd60e51b81526004016100ce90611abf565b600f54640100000000900461ffff16600081815260046020526040812060028101549091339161061690879062ffffff16611d12565b835490915081111561063a5760405162461bcd60e51b81526004016100ce90611a62565b60008481526004602052604090819020600201805462ffffff191662ffffff8416179055600f54905163ffffffff909116906001600160a01b0389811691908516907f24baa69b57a681d7ee88dd841adaa7ea5fccf5d3f3e4cbf877d1155460d58d06906106ad9085908c908b90611cf4565b60405180910390a360005b878110156109035788600060080160008463ffffffff16815260200190815260200160002060000160006101000a8154816001600160a01b0302191690836001600160a01b0316021790555085600060080160008463ffffffff16815260200190815260200160002060000160156101000a81548161ffff021916908361ffff1602179055506000600b01805490506000600c0160008463ffffffff168152602001908152602001600020819055506000600b018290806001815401808255809150506001900390600052602060002090600891828204019190066004029091909190916101000a81548163ffffffff021916908363ffffffff160217905550600060090160008a6001600160a01b03166001600160a01b03168152602001908152602001600020805490506000600a0160008b6001600160a01b03166001600160a01b0316815260200190815260200160002060008463ffffffff16815260200190815260200160002081905550600060090160008a6001600160a01b03166001600160a01b031681526020019081526020016000208290806001815401808255809150506001900390600052602060002090600891828204019190066004029091909190916101000a81548163ffffffff021916908363ffffffff1602179055508163ffffffff16896001600160a01b031660006001600160a01b03167fddf252ad1be2c89b69c2b068fc378daa952ba7f163c4a11628f55a4df523b3ef60405160405180910390a4816108ed81611dc7565b92505080806108fb90611dac565b9150506106b8565b50600f805463ffffffff191663ffffffff9290921691909117905550505050505050565b6001600160a01b03851661094d5760405162461bcd60e51b81526004016100ce906118ec565b82811461096c5760405162461bcd60e51b81526004016100ce90611c4f565b33306000805b86811015610a9a57600088888381811061099c57634e487b7160e01b600052603260045260246000fd5b90506020020135905060008787848181106109c757634e487b7160e01b600052603260045260246000fd5b905060200201359050806001146109f05760405162461bcd60e51b81526004016100ce90611c97565b6000806002018381548110610a1557634e487b7160e01b600052603260045260246000fd5b906000526020600020906007020190508060040160049054906101000a900460ff16610a535760405162461bcd60e51b81526004016100ce90611898565b6005810154610a629083611d4a565b610a6c9086611d12565b9450610a79868484610f7d565b610a848c84846111bd565b5050508080610a9290611dac565b915050610972565b506013546040516370a0823160e01b81526000916001600160a01b0316906370a0823190610acc9087906004016116b5565b60206040518083038186803b158015610ae457600080fd5b505afa158015610af8573d6000803e3d6000fd5b505050506040513d601f19601f82011682018060405250810190610b1c9190611621565b905081811015610b3e5760405162461bcd60e51b81526004016100ce90611a2b565b886001600160a01b0316836001600160a01b0316856001600160a01b03167f4a39dc06d4c0dbc64b70af90fd698a233a518aa5d07e595d983b8c0526c8f7fb8b8b8b8b604051610b91949392919061174f565b60405180910390a4886001600160a01b0316846001600160a01b03167fc9ac4d732b0c64d7087b02d87934ac0fc9731428f78fdab0e8886e7019bd9ed48a8a8a8a88604051610be4959493929190611781565b60405180910390a3610bf68483610f08565b610c1584848b8b8b8b8b60405180602001604052806000815250611282565b505050505050505050565b33838214610c405760405162461bcd60e51b81526004016100ce90611bf2565b6000805b85811015610d81576000878783818110610c6e57634e487b7160e01b600052603260045260246000fd5b9050602002013590506000868684818110610c9957634e487b7160e01b600052603260045260246000fd5b9050602002013590506000806002018381548110610cc757634e487b7160e01b600052603260045260246000fd5b906000526020600020906007020190508060040160049054906101000a900460ff16610d055760405162461bcd60e51b81526004016100ce90611898565b6000828260030154610d179190611d12565b90508160020154811115610d3d5760405162461bcd60e51b81526004016100ce906119ce565b600382018190556005820154610d539084611d4a565b610d5d9087611d12565b9550610d6a8c85856111bd565b505050508080610d7990611dac565b915050610c44565b506013546040516370a0823160e01b81526000916001600160a01b0316906370a0823190610db39086906004016116b5565b60206040518083038186803b158015610dcb57600080fd5b505afa158015610ddf573d6000803e3d6000fd5b505050506040513d601f19601f82011682018060405250810190610e039190611621565b905081811015610e255760405162461bcd60e51b81526004016100ce90611a2b565b876001600160a01b0316836001600160a01b03167f26c06f776da696c8d8edb850cab4174abb2fc1c13e7150fc8c9f0f92cd6f9db88989898988604051610e70959493929190611781565b60405180910390a3876001600160a01b031660006001600160a01b0316846001600160a01b03167f4a39dc06d4c0dbc64b70af90fd698a233a518aa5d07e595d983b8c0526c8f7fb8a8a8a8a604051610ecc949392919061174f565b60405180910390a4610ede8383610f08565b610efe8360008a8a8a8a8a60405180602001604052806000815250611282565b5050505050505050565b6000610f12611343565b905060006064610f23846021611d4a565b610f2d9190611d2a565b90506000610f3b8285611d69565b60138401549091506001600160a01b0316610f598187600086611348565b6014840154610f7590829088906001600160a01b031685611348565b505050505050565b6000610f87611343565b6001600160a01b0385166000908152600582016020908152604080832087845290915290205490915080831115610fd05760405162461bcd60e51b81526004016100ce90611932565b610fda8382611d69565b6001600160a01b0386166000908152600584016020908152604080832088845290915290208190559050806111b6576001600160a01b0385166000908152600783016020908152604080832087845290915281205461103b90600190611d69565b6001600160a01b03871660009081526006850160205260408120549192509061106690600190611d69565b9050808214611141576001600160a01b038716600090815260068501602052604081208054839081106110a957634e487b7160e01b600052603260045260246000fd5b906000526020600020015490508061ffff168560060160008a6001600160a01b03166001600160a01b03168152602001908152602001600020848154811061110157634e487b7160e01b600052603260045260246000fd5b600091825260209091200155611118836001611d12565b6001600160a01b0389166000908152600787016020908152604080832094835293905291909120555b6001600160a01b0387166000908152600685016020526040902080548061117857634e487b7160e01b600052603160045260246000fd5b6000828152602080822083016000199081018390559092019092556001600160a01b0389168252600786018152604080832089845290915281205550505b5050505050565b60006111c7611343565b6001600160a01b03851660009081526005820160209081526040808320878452909152812080549293508492909190611201908490611d12565b90915550506001600160a01b0384166000908152600782016020908152604080832086845290915290205461127c576001600160a01b03841660008181526006830160209081526040808320805460018101825581855283852061ffff8a169101559383529254600785018252838320878452909152919020555b50505050565b853b8015610c155760405163bc197c8160e01b81526001600160a01b0388169063bc197c81906112c2908c908c908b908b908b908b908b906004016116c9565b602060405180830381600087803b1580156112dc57600080fd5b505af11580156112f0573d6000803e3d6000fd5b505050506040513d601f19601f8201168201806040525081019061131491906115f9565b6001600160e01b03191663bc197c8160e01b14610c155760405162461bcd60e51b81526004016100ce90611ba8565b600090565b833b806113675760405162461bcd60e51b81526004016100ce906117fe565b600080866001600160a01b03166323b872dd60e01b8787876040516024016113919392919061172b565b60408051601f198184030181529181526020820180516001600160e01b03166001600160e01b03199094169390931790925290516113cf9190611699565b6000604051808303816000865af19150503d806000811461140c576040519150601f19603f3d011682016040523d82523d6000602084013e611411565b606091505b50915091506114208282611429565b50505050505050565b811561146b57805115611466578080602001905181019061144a91906115d2565b6114665760405162461bcd60e51b81526004016100ce90611847565b6114a4565b80511561148c578060405162461bcd60e51b81526004016100ce91906117bb565b60405162461bcd60e51b81526004016100ce90611983565b5050565b60405180606001604052806003906020820280368337509192915050565b80356001600160a01b03811681146114dd57600080fd5b919050565b60008083601f8401126114f3578182fd5b50813567ffffffffffffffff81111561150a578182fd5b602083019150836020808302850101111561152457600080fd5b9250929050565b600080600080600060608688031215611542578081fd5b61154b866114c6565b9450602086013567ffffffffffffffff80821115611567578283fd5b61157389838a016114e2565b9096509450604088013591508082111561158b578283fd5b50611598888289016114e2565b969995985093965092949392505050565b600080604083850312156115bb578182fd5b6115c4836114c6565b946020939093013593505050565b6000602082840312156115e3578081fd5b815180151581146115f2578182fd5b9392505050565b60006020828403121561160a578081fd5b81516001600160e01b0319811681146115f2578182fd5b600060208284031215611632578081fd5b5051919050565b81835260006001600160fb1b03831115611651578081fd5b6020830280836020870137939093016020019283525090919050565b60008151808452611685816020860160208601611d80565b601f01601f19169290920160200192915050565b600082516116ab818460208701611d80565b9190910192915050565b6001600160a01b0391909116815260200190565b6001600160a01b0388811682528716602082015260a0604082018190526000906116f69083018789611639565b8281036060840152611709818688611639565b9050828103608084015261171d818561166d565b9a9950505050505050505050565b6001600160a01b039384168152919092166020820152604081019190915260600190565b600060408252611763604083018688611639565b8281036020840152611776818587611639565b979650505050505050565b600060608252611795606083018789611639565b82810360208401526117a8818688611639565b9150508260408301529695505050505050565b6000602082526115f2602083018461166d565b60208082526016908201527543616e277420627579206d6f7265207468616e20323560501b604082015260600190565b60208082526029908201527f4c696245524332303a20455243323020746f6b656e206164647265737320686160408201526873206e6f20636f646560b81b606082015260800190565b60208082526031908201527f4c696245524332303a207472616e73666572206f72207472616e7366657246726040820152706f6d2072657475726e65642066616c736560781b606082015260800190565b60208082526034908201527f53686f7046616365743a2043616e2774207075726368617365206368616c6c656040820152736e67652074797065207769746820505254434c4560601b606082015260800190565b60208082526026908201527f53686f7046616365743a2043616e2774207472616e7366657220746f2030206160408201526564647265737360d01b606082015260800190565b60208082526031908201527f4c69624368616c6c656e6765733a20446f65736e2774206861766520746861746040820152701036b0b73c903a37903a3930b739b332b960791b606082015260800190565b6020808252602b908201527f4c696245524332303a207472616e73666572206f72207472616e73666572467260408201526a1bdb481c995d995c9d195960aa1b606082015260800190565b6020808252603d908201527f53686f7046616365743a20546f74616c206368616c6c656e676520747970652060408201527f7175616e746974792065786365656473206d6178207175616e74697479000000606082015260800190565b6020808252601d908201527f53686f7046616365743a204e6f7420656e6f75676820505254434c4521000000604082015260600190565b6020808252603b908201527f53686f7046616365743a204578636565646564206d6178206e756d626572206f60408201527f6620646174686c6574657320666f72207468697320736561736f6e0000000000606082015260800190565b6020808252603e908201527f4c696241707053746f726167653a206f6e6c7920616e204368616c6c656e676560408201527f4d616e616765722063616e2063616c6c20746869732066756e6374696f6e0000606082015260800190565b6020808252602a908201527f53686f7046616365743a2043616e206f6e6c792070757263686173652066726f6040820152696d20536561736f6e203160b01b606082015260800190565b60208082526022908201527f4e6f7420656e6f75676820505254434c4520746f2062757920646174686c6574604082015261657360f01b606082015260800190565b6020808252602a908201527f5765617261626c65733a205472616e736665722072656a65637465642f6661696040820152696c6564206279205f746f60b01b606082015260800190565b60208082526037908201527f53686f7046616365743a205f6368616c6c656e6765496473206e6f742073616d60408201527f65206c656e677468206173205f7175616e746974696573000000000000000000606082015260800190565b60208082526028908201527f53686f7046616365743a20696473206e6f742073616d65206c656e6774682061604082015267732076616c75657360c01b606082015260800190565b6020808252603e908201527f53686f7046616365743a2043616e206f6e6c792070757263686173652031206f60408201527f6620616e206368616c6c656e676520706572207472616e73616374696f6e0000606082015260800190565b63ffffffff9390931683526020830191909152604082015260600190565b60008219821115611d2557611d25611deb565b500190565b600082611d4557634e487b7160e01b81526012600452602481fd5b500490565b6000816000190483118215151615611d6457611d64611deb565b500290565b600082821015611d7b57611d7b611deb565b500390565b60005b83811015611d9b578181015183820152602001611d83565b8381111561127c5750506000910152565b6000600019821415611dc057611dc0611deb565b5060010190565b600063ffffffff80831681811415611de157611de1611deb565b6001019392505050565b634e487b7160e01b600052601160045260246000fdfea26469706673582212203f00d1a7613230951cbb7ca2c3fb176e61f361747986ca63ece0499dd20a4c9f64736f6c63430008010033",
  "linkReferences": {},
  "deployedLinkReferences": {}
}