{
  "_format": "hh-sol-artifact-1",
  "contractName": "DiamondInit",
  "sourceName": "contracts/upgradeInitializers/DiamondInit.sol",
  "abi": [
    {
      "inputs": [
        {
          "components": [
            {
              "internalType": "address",
              "name": "dao",
              "type": "address"
            },
            {
              "internalType": "address",
              "name": "daoTreasury",
              "type": "address"
            },
            {
              "internalType": "address",
              "name": "prtcleContract",
              "type": "address"
            },
            {
              "internalType": "string",
              "name": "name",
              "type": "string"
            },
            {
              "internalType": "string",
              "name": "symbol",
              "type": "string"
            }
          ],
          "internalType": "struct DiamondInit.Args",
          "name": "_args",
          "type": "tuple"
        }
      ],
      "name": "init",
      "outputs": [],
      "stateMutability": "nonpayable",
      "type": "function"
    }
  ],
  "bytecode": "0x608060405234801561001057600080fd5b5061042c806100206000396000f3fe608060405234801561001057600080fd5b506004361061002b5760003560e01c80631dd3784414610030575b600080fd5b61004361003e3660046102b3565b610045565b005b600061004f61016f565b6301ffc9a760e01b60009081526003820160209081526040808320805460ff1990811660019081179092556307e4c70760e21b855282852080548216831790556348e2b09360e01b855282852080548216831790556307f5828d60e41b8552938290208054909416179092558451601480546001600160a01b039283166001600160a01b031991821617909155868301516015805491841691831691909117905586840151601380549190931691161790558151808301909252600d8083526c697066733a2f2f66307b69647d60981b929091019182529192506101369160109190610193565b506060820151805161015091601191602090910190610193565b506080820151805161016a91601291602090910190610193565b505050565b7fc8fcad8db84d3cc18b4c41d551ea0ee66dd599cde068d998e57d5e09332c131c90565b82805461019f906103a5565b90600052602060002090601f0160209004810192826101c15760008555610207565b82601f106101da57805160ff1916838001178555610207565b82800160010185558215610207579182015b828111156102075782518255916020019190600101906101ec565b50610213929150610217565b5090565b5b808211156102135760008155600101610218565b80356001600160a01b038116811461024357600080fd5b919050565b600082601f830112610258578081fd5b813567ffffffffffffffff811115610272576102726103e0565b610285601f8201601f1916602001610374565b818152846020838601011115610299578283fd5b816020850160208301379081016020019190915292915050565b6000602082840312156102c4578081fd5b813567ffffffffffffffff808211156102db578283fd5b9083019060a082860312156102ee578283fd5b6102f860a0610374565b6103018361022c565b815261030f6020840161022c565b60208201526103206040840161022c565b6040820152606083013582811115610336578485fd5b61034287828601610248565b606083015250608083013582811115610359578485fd5b61036587828601610248565b60808301525095945050505050565b604051601f8201601f1916810167ffffffffffffffff8111828210171561039d5761039d6103e0565b604052919050565b6002810460018216806103b957607f821691505b602082108114156103da57634e487b7160e01b600052602260045260246000fd5b50919050565b634e487b7160e01b600052604160045260246000fdfea26469706673582212206741eacf8c1a634e345d3b9731c821b449ae55f9b764494ee60d4faabace5c4c64736f6c63430008010033",
  "linkReferences": {},
  "deployedLinkReferences": {}
}