{
  "_format": "hh-sol-artifact-1",
  "contractName": "ChallengesFacet",
  "sourceName": "contracts/facets/ChallengesFacet.sol",
  "abi": [
    {
      "anonymous": false,
      "inputs": [
        {
          "indexed": true,
          "internalType": "address",
          "name": "_toContract",
          "type": "address"
        },
        {
          "indexed": false,
          "internalType": "uint256",
          "name": "_toTokenId",
          "type": "uint256"
        },
        {
          "indexed": true,
          "internalType": "uint256",
          "name": "_tokenTypeId",
          "type": "uint256"
        },
        {
          "indexed": false,
          "internalType": "uint256",
          "name": "_value",
          "type": "uint256"
        }
      ],
      "name": "TransferToParent",
      "type": "event"
    },
    {
      "inputs": [
        {
          "internalType": "address",
          "name": "_owner",
          "type": "address"
        },
        {
          "internalType": "uint256",
          "name": "_id",
          "type": "uint256"
        }
      ],
      "name": "balanceOf",
      "outputs": [
        {
          "internalType": "uint256",
          "name": "bal_",
          "type": "uint256"
        }
      ],
      "stateMutability": "view",
      "type": "function"
    },
    {
      "inputs": [
        {
          "internalType": "address[]",
          "name": "_owners",
          "type": "address[]"
        },
        {
          "internalType": "uint256[]",
          "name": "_ids",
          "type": "uint256[]"
        }
      ],
      "name": "balanceOfBatch",
      "outputs": [
        {
          "internalType": "uint256[]",
          "name": "bals",
          "type": "uint256[]"
        }
      ],
      "stateMutability": "view",
      "type": "function"
    },
    {
      "inputs": [
        {
          "internalType": "address",
          "name": "_tokenContract",
          "type": "address"
        },
        {
          "internalType": "uint256",
          "name": "_tokenId",
          "type": "uint256"
        },
        {
          "internalType": "uint256",
          "name": "_id",
          "type": "uint256"
        }
      ],
      "name": "balanceOfToken",
      "outputs": [
        {
          "internalType": "uint256",
          "name": "value",
          "type": "uint256"
        }
      ],
      "stateMutability": "view",
      "type": "function"
    },
    {
      "inputs": [
        {
          "internalType": "address",
          "name": "_account",
          "type": "address"
        }
      ],
      "name": "challengeBalances",
      "outputs": [
        {
          "components": [
            {
              "internalType": "uint256",
              "name": "challengeId",
              "type": "uint256"
            },
            {
              "internalType": "uint256",
              "name": "balance",
              "type": "uint256"
            }
          ],
          "internalType": "struct ChallengesFacet.ChallengeIdIO[]",
          "name": "bals_",
          "type": "tuple[]"
        }
      ],
      "stateMutability": "view",
      "type": "function"
    },
    {
      "inputs": [
        {
          "internalType": "address",
          "name": "_tokenContract",
          "type": "address"
        },
        {
          "internalType": "uint256",
          "name": "_tokenId",
          "type": "uint256"
        }
      ],
      "name": "challengeBalancesOfToken",
      "outputs": [
        {
          "components": [
            {
              "internalType": "uint256",
              "name": "challengeId",
              "type": "uint256"
            },
            {
              "internalType": "uint256",
              "name": "balance",
              "type": "uint256"
            }
          ],
          "internalType": "struct ChallengesFacet.ChallengeIdIO[]",
          "name": "bals_",
          "type": "tuple[]"
        }
      ],
      "stateMutability": "view",
      "type": "function"
    },
    {
      "inputs": [
        {
          "internalType": "address",
          "name": "_tokenContract",
          "type": "address"
        },
        {
          "internalType": "uint256",
          "name": "_tokenId",
          "type": "uint256"
        }
      ],
      "name": "challengeBalancesOfTokenWithTypes",
      "outputs": [
        {
          "components": [
            {
              "internalType": "uint256",
              "name": "balance",
              "type": "uint256"
            },
            {
              "internalType": "uint256",
              "name": "challengeId",
              "type": "uint256"
            },
            {
              "components": [
                {
                  "internalType": "string",
                  "name": "name",
                  "type": "string"
                },
                {
                  "internalType": "string",
                  "name": "description",
                  "type": "string"
                },
                {
                  "internalType": "uint256",
                  "name": "maxQuantity",
                  "type": "uint256"
                },
                {
                  "internalType": "uint256",
                  "name": "totalQuantity",
                  "type": "uint256"
                },
                {
                  "internalType": "uint32",
                  "name": "id",
                  "type": "uint32"
                },
                {
                  "internalType": "bool",
                  "name": "canPurchaseWithPrtcle",
                  "type": "bool"
                },
                {
                  "internalType": "uint256",
                  "name": "prtclePrice",
                  "type": "uint256"
                },
                {
                  "internalType": "bool",
                  "name": "canBeTransferred",
                  "type": "bool"
                }
              ],
              "internalType": "struct ChallengeType",
              "name": "challengeType",
              "type": "tuple"
            }
          ],
          "internalType": "struct ChallengeTypeIO[]",
          "name": "challengeBalancesOfTokenWithTypes_",
          "type": "tuple[]"
        }
      ],
      "stateMutability": "view",
      "type": "function"
    },
    {
      "inputs": [
        {
          "internalType": "address",
          "name": "_owner",
          "type": "address"
        }
      ],
      "name": "challengeBalancesWithTypes",
      "outputs": [
        {
          "components": [
            {
              "internalType": "uint256",
              "name": "balance",
              "type": "uint256"
            },
            {
              "internalType": "uint256",
              "name": "challengeId",
              "type": "uint256"
            },
            {
              "components": [
                {
                  "internalType": "string",
                  "name": "name",
                  "type": "string"
                },
                {
                  "internalType": "string",
                  "name": "description",
                  "type": "string"
                },
                {
                  "internalType": "uint256",
                  "name": "maxQuantity",
                  "type": "uint256"
                },
                {
                  "internalType": "uint256",
                  "name": "totalQuantity",
                  "type": "uint256"
                },
                {
                  "internalType": "uint32",
                  "name": "id",
                  "type": "uint32"
                },
                {
                  "internalType": "bool",
                  "name": "canPurchaseWithPrtcle",
                  "type": "bool"
                },
                {
                  "internalType": "uint256",
                  "name": "prtclePrice",
                  "type": "uint256"
                },
                {
                  "internalType": "bool",
                  "name": "canBeTransferred",
                  "type": "bool"
                }
              ],
              "internalType": "struct ChallengeType",
              "name": "challengeType",
              "type": "tuple"
            }
          ],
          "internalType": "struct ChallengeTypeIO[]",
          "name": "output_",
          "type": "tuple[]"
        }
      ],
      "stateMutability": "view",
      "type": "function"
    },
    {
      "inputs": [
        {
          "internalType": "uint256",
          "name": "_challengeId",
          "type": "uint256"
        }
      ],
      "name": "getChallengeType",
      "outputs": [
        {
          "components": [
            {
              "internalType": "string",
              "name": "name",
              "type": "string"
            },
            {
              "internalType": "string",
              "name": "description",
              "type": "string"
            },
            {
              "internalType": "uint256",
              "name": "maxQuantity",
              "type": "uint256"
            },
            {
              "internalType": "uint256",
              "name": "totalQuantity",
              "type": "uint256"
            },
            {
              "internalType": "uint32",
              "name": "id",
              "type": "uint32"
            },
            {
              "internalType": "bool",
              "name": "canPurchaseWithPrtcle",
              "type": "bool"
            },
            {
              "internalType": "uint256",
              "name": "prtclePrice",
              "type": "uint256"
            },
            {
              "internalType": "bool",
              "name": "canBeTransferred",
              "type": "bool"
            }
          ],
          "internalType": "struct ChallengeType",
          "name": "challengeType_",
          "type": "tuple"
        }
      ],
      "stateMutability": "view",
      "type": "function"
    },
    {
      "inputs": [
        {
          "internalType": "uint256[]",
          "name": "_challengeIds",
          "type": "uint256[]"
        }
      ],
      "name": "getChallengeTypes",
      "outputs": [
        {
          "components": [
            {
              "internalType": "string",
              "name": "name",
              "type": "string"
            },
            {
              "internalType": "string",
              "name": "description",
              "type": "string"
            },
            {
              "internalType": "uint256",
              "name": "maxQuantity",
              "type": "uint256"
            },
            {
              "internalType": "uint256",
              "name": "totalQuantity",
              "type": "uint256"
            },
            {
              "internalType": "uint32",
              "name": "id",
              "type": "uint32"
            },
            {
              "internalType": "bool",
              "name": "canPurchaseWithPrtcle",
              "type": "bool"
            },
            {
              "internalType": "uint256",
              "name": "prtclePrice",
              "type": "uint256"
            },
            {
              "internalType": "bool",
              "name": "canBeTransferred",
              "type": "bool"
            }
          ],
          "internalType": "struct ChallengeType[]",
          "name": "challengeTypes_",
          "type": "tuple[]"
        }
      ],
      "stateMutability": "view",
      "type": "function"
    },
    {
      "inputs": [
        {
          "internalType": "string",
          "name": "_value",
          "type": "string"
        }
      ],
      "name": "setBaseURI",
      "outputs": [],
      "stateMutability": "nonpayable",
      "type": "function"
    },
    {
      "inputs": [
        {
          "internalType": "uint256",
          "name": "_id",
          "type": "uint256"
        }
      ],
      "name": "uri",
      "outputs": [
        {
          "internalType": "string",
          "name": "",
          "type": "string"
        }
      ],
      "stateMutability": "view",
      "type": "function"
    }
  ],
  "bytecode": "0x608060405234801561001057600080fd5b50611eff806100206000396000f3fe608060405234801561001057600080fd5b50600436106100a85760003560e01c806355f804b31161007157806355f804b3146101495780635cf2d9d31461015e578063662024961461017e5780639c8c9d871461019e5780639e1e5cf2146101b1578063e597d609146101c4576100a8565b8062fdd58e146100ad5780630e89341c146100d657806339a209df146100f6578063478e5542146101095780634e1273f414610129575b600080fd5b6100c06100bb366004611809565b6101e4565b6040516100cd9190611ddf565b60405180910390f35b6100e96100e43660046119b7565b61020b565b6040516100cd9190611c57565b6100c0610104366004611832565b61026e565b61011c6101173660046117ef565b61029e565b6040516100cd9190611ae8565b61013c610137366004611864565b610409565b6040516100cd9190611c13565b61015c61015736600461190d565b61055e565b005b61017161016c3660046118cd565b6105f4565b6040516100cd9190611bb3565b61019161018c3660046117ef565b610a63565b6040516100cd9190611b37565b61011c6101ac366004611809565b610dae565b6101916101bf366004611809565b610f36565b6101d76101d23660046119b7565b610f49565b6040516100cd9190611dcc565b6001600160a01b039091166000908152600560209081526040808320938352929052205490565b60025460609082106102385760405162461bcd60e51b815260040161022f90611d37565b60405180910390fd5b60606102438361112b565b9050806040516020016102569190611ab7565b6040516020818303038152906040529150505b919050565b6001600160a01b039092166000908152602081815260408083209383529281528282209382529290925290205490565b6001600160a01b0381166000908152600660205260409020546060908067ffffffffffffffff8111156102e157634e487b7160e01b600052604160045260246000fd5b60405190808252806020026020018201604052801561031a57816020015b610307611667565b8152602001906001900390816102ff5790505b50915060005b81811015610402576001600160a01b038416600090815260066020526040812080548390811061036057634e487b7160e01b600052603260045260246000fd5b60009182526020808320909101546001600160a01b03881683526005825260408084208285529092529120548551919250908590849081106103b257634e487b7160e01b600052603260045260246000fd5b60200260200101516020018181525050808483815181106103e357634e487b7160e01b600052603260045260246000fd5b60209081029190910101515250806103fa81611e82565b915050610320565b5050919050565b606083821461042a5760405162461bcd60e51b815260040161022f90611cda565b8367ffffffffffffffff81111561045157634e487b7160e01b600052604160045260246000fd5b60405190808252806020026020018201604052801561047a578160200160208202803683370190505b50905060005b848110156105555760008484838181106104aa57634e487b7160e01b600052603260045260246000fd5b90506020020135905060008787848181106104d557634e487b7160e01b600052603260045260246000fd5b90506020020160208101906104ea91906117ef565b6001600160a01b038116600090815260056020908152604080832086845290915290205485519192509085908590811061053457634e487b7160e01b600052603260045260246000fd5b6020026020010181815250505050808061054d90611e82565b915050610480565b50949350505050565b610566611259565b8051610579906010906020840190611681565b5060005b6002548110156105f05760006105928261112b565b905060006105a0848361128e565b90507f82f98b73196c4eeabd7ebf96a2c140e6ecbc804c7c55c4a4f3bd7e05eeb72fb381836040516105d3929190611c6a565b60405180910390a1505080806105e890611e82565b91505061057d565b5050565b6060816107d557600280546040805160208084028201810190925282815292919060009084015b828210156107ca57838290600052602060002090600702016040518061010001604052908160008201805461064f90611e47565b80601f016020809104026020016040519081016040528092919081815260200182805461067b90611e47565b80156106c85780601f1061069d576101008083540402835291602001916106c8565b820191906000526020600020905b8154815290600101906020018083116106ab57829003601f168201915b505050505081526020016001820180546106e190611e47565b80601f016020809104026020016040519081016040528092919081815260200182805461070d90611e47565b801561075a5780601f1061072f5761010080835404028352916020019161075a565b820191906000526020600020905b81548152906001019060200180831161073d57829003601f168201915b5050509183525050600282015460208083019190915260038301546040830152600483015463ffffffff8116606084015260ff640100000000909104811615156080840152600584015460a0840152600690930154909216151560c090910152908252600192909201910161061b565b505050509050610a5d565b8167ffffffffffffffff8111156107fc57634e487b7160e01b600052604160045260246000fd5b60405190808252806020026020018201604052801561083557816020015b610822611705565b81526020019060019003908161081a5790505b50905060005b82811015610a5b57600284848381811061086557634e487b7160e01b600052603260045260246000fd5b905060200201358154811061088a57634e487b7160e01b600052603260045260246000fd5b9060005260206000209060070201604051806101000160405290816000820180546108b490611e47565b80601f01602080910402602001604051908101604052809291908181526020018280546108e090611e47565b801561092d5780601f106109025761010080835404028352916020019161092d565b820191906000526020600020905b81548152906001019060200180831161091057829003601f168201915b5050505050815260200160018201805461094690611e47565b80601f016020809104026020016040519081016040528092919081815260200182805461097290611e47565b80156109bf5780601f10610994576101008083540402835291602001916109bf565b820191906000526020600020905b8154815290600101906020018083116109a257829003601f168201915b50505091835250506002820154602082015260038201546040820152600482015463ffffffff8116606083015260ff640100000000909104811615156080830152600583015460a0830152600690920154909116151560c0909101528251839083908110610a3d57634e487b7160e01b600052603260045260246000fd5b60200260200101819052508080610a5390611e82565b91505061083b565b505b92915050565b6001600160a01b0381166000908152600660205260409020546060908067ffffffffffffffff811115610aa657634e487b7160e01b600052604160045260246000fd5b604051908082528060200260200182016040528015610adf57816020015b610acc611754565b815260200190600190039081610ac45790505b50915060005b81811015610402576001600160a01b0384166000908152600660205260408120805483908110610b2557634e487b7160e01b600052603260045260246000fd5b60009182526020808320909101546001600160a01b0388168352600582526040808420828552909252912054855191925090859084908110610b7757634e487b7160e01b600052603260045260246000fd5b6020026020010151600001818152505080848381518110610ba857634e487b7160e01b600052603260045260246000fd5b60209081029190910181015101526002805482908110610bd857634e487b7160e01b600052603260045260246000fd5b906000526020600020906007020160405180610100016040529081600082018054610c0290611e47565b80601f0160208091040260200160405190810160405280929190818152602001828054610c2e90611e47565b8015610c7b5780601f10610c5057610100808354040283529160200191610c7b565b820191906000526020600020905b815481529060010190602001808311610c5e57829003601f168201915b50505050508152602001600182018054610c9490611e47565b80601f0160208091040260200160405190810160405280929190818152602001828054610cc090611e47565b8015610d0d5780601f10610ce257610100808354040283529160200191610d0d565b820191906000526020600020905b815481529060010190602001808311610cf057829003601f168201915b50505091835250506002820154602082015260038201546040820152600482015463ffffffff8116606083015260ff640100000000909104811615156080830152600583015460a0830152600690920154909116151560c0909101528451859084908110610d8b57634e487b7160e01b600052603260045260246000fd5b602002602001015160400181905250508080610da690611e82565b915050610ae5565b6001600160a01b03821660009081526001602090815260408083208484529091529020546060908067ffffffffffffffff811115610dfc57634e487b7160e01b600052604160045260246000fd5b604051908082528060200260200182016040528015610e3557816020015b610e22611667565b815260200190600190039081610e1a5790505b50915060005b81811015610f2e576001600160a01b03851660009081526001602090815260408083208784529091528120805483908110610e8657634e487b7160e01b600052603260045260246000fd5b9060005260206000200154905080848381518110610eb457634e487b7160e01b600052603260045260246000fd5b602090810291909101810151919091526001600160a01b03871660009081528082526040808220888352835280822084835290925220548451859084908110610f0d57634e487b7160e01b600052603260045260246000fd5b60209081029190910181015101525080610f2681611e82565b915050610e3b565b505092915050565b6060610f4283836112ba565b9392505050565b610f51611705565b6002548210610f725760405162461bcd60e51b815260040161022f90611d7f565b6002805483908110610f9457634e487b7160e01b600052603260045260246000fd5b906000526020600020906007020160405180610100016040529081600082018054610fbe90611e47565b80601f0160208091040260200160405190810160405280929190818152602001828054610fea90611e47565b80156110375780601f1061100c57610100808354040283529160200191611037565b820191906000526020600020905b81548152906001019060200180831161101a57829003601f168201915b5050505050815260200160018201805461105090611e47565b80601f016020809104026020016040519081016040528092919081815260200182805461107c90611e47565b80156110c95780601f1061109e576101008083540402835291602001916110c9565b820191906000526020600020905b8154815290600101906020018083116110ac57829003601f168201915b50505091835250506002820154602082015260038201546040820152600482015463ffffffff8116606083015260ff640100000000909104811615156080830152600583015460a0830152600690920154909116151560c09091015292915050565b60608161115057506040805180820190915260018152600360fc1b6020820152610269565b8160005b8115611173578061116481611e82565b915050600482901c9150611154565b600f60008267ffffffffffffffff81111561119e57634e487b7160e01b600052604160045260246000fd5b6040519080825280601f01601f1916602001820160405280156111c8576020820181803683370190505b509050825b861561124f57868316600981116111f1576111e9816030611de8565b60f81b611200565b6111fc816037611de8565b60f81b5b8361120a84611e30565b9350838151811061122b57634e487b7160e01b600052603260045260246000fd5b60200101906001600160f81b031916908160001a905350600488901c9750506111cd565b5095945050505050565b61126161163e565b600401546001600160a01b0316331461128c5760405162461bcd60e51b815260040161022f90611c98565b565b606082826040516020016112a3929190611a88565b604051602081830303815290604052905092915050565b606060006112c6611662565b6001600160a01b038516600090815260018201602090815260408083208784529091529020549091508067ffffffffffffffff81111561131657634e487b7160e01b600052604160045260246000fd5b60405190808252806020026020018201604052801561134f57816020015b61133c611754565b8152602001906001900390816113345790505b50925060005b81811015611635576001600160a01b0386166000908152600184016020908152604080832088845290915281208054839081106113a257634e487b7160e01b600052603260045260246000fd5b60009182526020808320909101546001600160a01b038a16835286825260408084208a8552835280842082855290925291205486519192509082908790859081106113fd57634e487b7160e01b600052603260045260246000fd5b602002602001015160200181815250508086848151811061142e57634e487b7160e01b600052603260045260246000fd5b6020908102919091010151526002850180548390811061145e57634e487b7160e01b600052603260045260246000fd5b90600052602060002090600702016040518061010001604052908160008201805461148890611e47565b80601f01602080910402602001604051908101604052809291908181526020018280546114b490611e47565b80156115015780601f106114d657610100808354040283529160200191611501565b820191906000526020600020905b8154815290600101906020018083116114e457829003601f168201915b5050505050815260200160018201805461151a90611e47565b80601f016020809104026020016040519081016040528092919081815260200182805461154690611e47565b80156115935780601f1061156857610100808354040283529160200191611593565b820191906000526020600020905b81548152906001019060200180831161157657829003601f168201915b50505091835250506002820154602082015260038201546040820152600482015463ffffffff8116606083015260ff640100000000909104811615156080830152600583015460a0830152600690920154909116151560c090910152865187908590811061161157634e487b7160e01b600052603260045260246000fd5b6020026020010151604001819052505050808061162d90611e82565b915050611355565b50505092915050565b7fc8fcad8db84d3cc18b4c41d551ea0ee66dd599cde068d998e57d5e09332c131c90565b600090565b604051806040016040528060008152602001600081525090565b82805461168d90611e47565b90600052602060002090601f0160209004810192826116af57600085556116f5565b82601f106116c857805160ff19168380011785556116f5565b828001600101855582156116f5579182015b828111156116f55782518255916020019190600101906116da565b5061170192915061177a565b5090565b60405180610100016040528060608152602001606081526020016000815260200160008152602001600063ffffffff168152602001600015158152602001600081526020016000151581525090565b60405180606001604052806000815260200160008152602001611775611705565b905290565b5b80821115611701576000815560010161177b565b80356001600160a01b038116811461026957600080fd5b60008083601f8401126117b7578081fd5b50813567ffffffffffffffff8111156117ce578182fd5b60208301915083602080830285010111156117e857600080fd5b9250929050565b600060208284031215611800578081fd5b610f428261178f565b6000806040838503121561181b578081fd5b6118248361178f565b946020939093013593505050565b600080600060608486031215611846578081fd5b61184f8461178f565b95602085013595506040909401359392505050565b60008060008060408587031215611879578081fd5b843567ffffffffffffffff80821115611890578283fd5b61189c888389016117a6565b909650945060208701359150808211156118b4578283fd5b506118c1878288016117a6565b95989497509550505050565b600080602083850312156118df578182fd5b823567ffffffffffffffff8111156118f5578283fd5b611901858286016117a6565b90969095509350505050565b60006020828403121561191e578081fd5b813567ffffffffffffffff80821115611935578283fd5b818401915084601f830112611948578283fd5b81358181111561195a5761195a611eb3565b604051601f8201601f19908116603f0116810190838211818310171561198257611982611eb3565b8160405282815287602084870101111561199a578586fd5b826020860160208301379182016020019490945295945050505050565b6000602082840312156119c8578081fd5b5035919050565b15159052565b600081518084526119ed816020860160208601611e00565b601f01601f19169290920160200192915050565b60006101008251818552611a17828601826119d5565b91505060208301518482036020860152611a3182826119d5565b915050604083015160408501526060830151606085015263ffffffff608084015116608085015260a0830151151560a085015260c083015160c085015260e0830151611a8060e08601826119cf565b509392505050565b60008351611a9a818460208801611e00565b835190830190611aae818360208801611e00565b01949350505050565b6000680697066733a2f2f66360bc1b82528251611adb816009850160208701611e00565b9190910160090192915050565b602080825282518282018190526000919060409081850190868401855b82811015611b2a57815180518552860151868501529284019290850190600101611b05565b5091979650505050505050565b60208082528251828201819052600091906040908185019080840286018301878501865b83811015611ba557888303603f1901855281518051845287810151888501528601516060878501819052611b9181860183611a01565b968901969450505090860190600101611b5b565b509098975050505050505050565b6000602080830181845280855180835260408601915060408482028701019250838701855b82811015611c0657603f19888603018452611bf4858351611a01565b94509285019290850190600101611bd8565b5092979650505050505050565b6020808252825182820181905260009190848201906040850190845b81811015611c4b57835183529284019291840191600101611c2f565b50909695505050505050565b600060208252610f4260208301846119d5565b600060408252611c7d60408301856119d5565b8281036020840152611c8f81856119d5565b95945050505050565b60208082526022908201527f4c69624469616d6f6e643a204d75737420626520636f6e7472616374206f776e60408201526132b960f11b606082015260800190565b60208082526037908201527f4368616c6c656e67657346616365743a205f6f776e657273206c656e6774682060408201527f6e6f742073616d65206173205f696473206c656e677468000000000000000000606082015260800190565b60208082526028908201527f4368616c6c656e67657346616365743a204368616c6c656e6765205f6964206e6040820152671bdd08199bdd5b9960c21b606082015260800190565b6020808252602d908201527f4368616c6c656e67657346616365743a204368616c6c656e676520747970652060408201526c191bd95cdb89dd08195e1a5cdd609a1b606082015260800190565b600060208252610f426020830184611a01565b90815260200190565b60008219821115611dfb57611dfb611e9d565b500190565b60005b83811015611e1b578181015183820152602001611e03565b83811115611e2a576000848401525b50505050565b600081611e3f57611e3f611e9d565b506000190190565b600281046001821680611e5b57607f821691505b60208210811415611e7c57634e487b7160e01b600052602260045260246000fd5b50919050565b6000600019821415611e9657611e96611e9d565b5060010190565b634e487b7160e01b600052601160045260246000fd5b634e487b7160e01b600052604160045260246000fdfea2646970667358221220dce126bb03981fb81d36f0e479e2d0727629d907ee8013a4c178acb39d9273d564736f6c63430008010033",
  "linkReferences": {},
  "deployedLinkReferences": {}
}