{
  "_format": "hh-sol-artifact-1",
  "contractName": "ChallengesFacet",
  "sourceName": "contracts/facets/ChallengesFacet.sol",
  "abi": [
    {
      "anonymous": false,
      "inputs": [
        {
          "indexed": true,
          "internalType": "address",
          "name": "_toContract",
          "type": "address"
        },
        {
          "indexed": false,
          "internalType": "uint256",
          "name": "_toTokenId",
          "type": "uint256"
        },
        {
          "indexed": true,
          "internalType": "uint256",
          "name": "_tokenTypeId",
          "type": "uint256"
        },
        {
          "indexed": false,
          "internalType": "uint256",
          "name": "_value",
          "type": "uint256"
        }
      ],
      "name": "TransferToParent",
      "type": "event"
    },
    {
      "inputs": [
        {
          "internalType": "address",
          "name": "_owner",
          "type": "address"
        },
        {
          "internalType": "uint256",
          "name": "_id",
          "type": "uint256"
        }
      ],
      "name": "balanceOf",
      "outputs": [
        {
          "internalType": "uint256",
          "name": "bal_",
          "type": "uint256"
        }
      ],
      "stateMutability": "view",
      "type": "function"
    },
    {
      "inputs": [
        {
          "internalType": "address[]",
          "name": "_owners",
          "type": "address[]"
        },
        {
          "internalType": "uint256[]",
          "name": "_ids",
          "type": "uint256[]"
        }
      ],
      "name": "balanceOfBatch",
      "outputs": [
        {
          "internalType": "uint256[]",
          "name": "bals",
          "type": "uint256[]"
        }
      ],
      "stateMutability": "view",
      "type": "function"
    },
    {
      "inputs": [
        {
          "internalType": "address",
          "name": "_tokenContract",
          "type": "address"
        },
        {
          "internalType": "uint256",
          "name": "_tokenId",
          "type": "uint256"
        },
        {
          "internalType": "uint256",
          "name": "_id",
          "type": "uint256"
        }
      ],
      "name": "balanceOfToken",
      "outputs": [
        {
          "internalType": "uint256",
          "name": "value",
          "type": "uint256"
        }
      ],
      "stateMutability": "view",
      "type": "function"
    },
    {
      "inputs": [
        {
          "internalType": "address",
          "name": "_account",
          "type": "address"
        }
      ],
      "name": "challengeBalances",
      "outputs": [
        {
          "components": [
            {
              "internalType": "uint256",
              "name": "challengeId",
              "type": "uint256"
            },
            {
              "internalType": "uint256",
              "name": "balance",
              "type": "uint256"
            }
          ],
          "internalType": "struct ChallengesFacet.ChallengeIdIO[]",
          "name": "bals_",
          "type": "tuple[]"
        }
      ],
      "stateMutability": "view",
      "type": "function"
    },
    {
      "inputs": [
        {
          "internalType": "address",
          "name": "_tokenContract",
          "type": "address"
        },
        {
          "internalType": "uint256",
          "name": "_tokenId",
          "type": "uint256"
        }
      ],
      "name": "challengeBalancesOfToken",
      "outputs": [
        {
          "components": [
            {
              "internalType": "uint256",
              "name": "challengeId",
              "type": "uint256"
            },
            {
              "internalType": "uint256",
              "name": "balance",
              "type": "uint256"
            }
          ],
          "internalType": "struct ChallengesFacet.ChallengeIdIO[]",
          "name": "bals_",
          "type": "tuple[]"
        }
      ],
      "stateMutability": "view",
      "type": "function"
    },
    {
      "inputs": [
        {
          "internalType": "address",
          "name": "_tokenContract",
          "type": "address"
        },
        {
          "internalType": "uint256",
          "name": "_tokenId",
          "type": "uint256"
        }
      ],
      "name": "challengeBalancesOfTokenWithTypes",
      "outputs": [
        {
          "components": [
            {
              "internalType": "uint256",
              "name": "balance",
              "type": "uint256"
            },
            {
              "internalType": "uint256",
              "name": "challengeId",
              "type": "uint256"
            },
            {
              "components": [
                {
                  "internalType": "string",
                  "name": "name",
                  "type": "string"
                },
                {
                  "internalType": "string",
                  "name": "description",
                  "type": "string"
                },
                {
                  "internalType": "uint256",
                  "name": "maxQuantity",
                  "type": "uint256"
                },
                {
                  "internalType": "uint256",
                  "name": "totalQuantity",
                  "type": "uint256"
                },
                {
                  "internalType": "uint32",
                  "name": "id",
                  "type": "uint32"
                },
                {
                  "internalType": "bool",
                  "name": "canPurchaseWithPrtcle",
                  "type": "bool"
                },
                {
                  "internalType": "uint256",
                  "name": "prtclePrice",
                  "type": "uint256"
                },
                {
                  "internalType": "bool",
                  "name": "canBeTransferred",
                  "type": "bool"
                }
              ],
              "internalType": "struct ChallengeType",
              "name": "challengeType",
              "type": "tuple"
            }
          ],
          "internalType": "struct ChallengeTypeIO[]",
          "name": "challengeBalancesOfTokenWithTypes_",
          "type": "tuple[]"
        }
      ],
      "stateMutability": "view",
      "type": "function"
    },
    {
      "inputs": [
        {
          "internalType": "address",
          "name": "_owner",
          "type": "address"
        }
      ],
      "name": "challengeBalancesWithTypes",
      "outputs": [
        {
          "components": [
            {
              "internalType": "uint256",
              "name": "balance",
              "type": "uint256"
            },
            {
              "internalType": "uint256",
              "name": "challengeId",
              "type": "uint256"
            },
            {
              "components": [
                {
                  "internalType": "string",
                  "name": "name",
                  "type": "string"
                },
                {
                  "internalType": "string",
                  "name": "description",
                  "type": "string"
                },
                {
                  "internalType": "uint256",
                  "name": "maxQuantity",
                  "type": "uint256"
                },
                {
                  "internalType": "uint256",
                  "name": "totalQuantity",
                  "type": "uint256"
                },
                {
                  "internalType": "uint32",
                  "name": "id",
                  "type": "uint32"
                },
                {
                  "internalType": "bool",
                  "name": "canPurchaseWithPrtcle",
                  "type": "bool"
                },
                {
                  "internalType": "uint256",
                  "name": "prtclePrice",
                  "type": "uint256"
                },
                {
                  "internalType": "bool",
                  "name": "canBeTransferred",
                  "type": "bool"
                }
              ],
              "internalType": "struct ChallengeType",
              "name": "challengeType",
              "type": "tuple"
            }
          ],
          "internalType": "struct ChallengeTypeIO[]",
          "name": "output_",
          "type": "tuple[]"
        }
      ],
      "stateMutability": "view",
      "type": "function"
    },
    {
      "inputs": [
        {
          "internalType": "uint256",
          "name": "_challengeId",
          "type": "uint256"
        }
      ],
      "name": "getChallengeType",
      "outputs": [
        {
          "components": [
            {
              "internalType": "string",
              "name": "name",
              "type": "string"
            },
            {
              "internalType": "string",
              "name": "description",
              "type": "string"
            },
            {
              "internalType": "uint256",
              "name": "maxQuantity",
              "type": "uint256"
            },
            {
              "internalType": "uint256",
              "name": "totalQuantity",
              "type": "uint256"
            },
            {
              "internalType": "uint32",
              "name": "id",
              "type": "uint32"
            },
            {
              "internalType": "bool",
              "name": "canPurchaseWithPrtcle",
              "type": "bool"
            },
            {
              "internalType": "uint256",
              "name": "prtclePrice",
              "type": "uint256"
            },
            {
              "internalType": "bool",
              "name": "canBeTransferred",
              "type": "bool"
            }
          ],
          "internalType": "struct ChallengeType",
          "name": "challengeType_",
          "type": "tuple"
        }
      ],
      "stateMutability": "view",
      "type": "function"
    },
    {
      "inputs": [
        {
          "internalType": "uint256[]",
          "name": "_challengeIds",
          "type": "uint256[]"
        }
      ],
      "name": "getChallengeTypes",
      "outputs": [
        {
          "components": [
            {
              "internalType": "string",
              "name": "name",
              "type": "string"
            },
            {
              "internalType": "string",
              "name": "description",
              "type": "string"
            },
            {
              "internalType": "uint256",
              "name": "maxQuantity",
              "type": "uint256"
            },
            {
              "internalType": "uint256",
              "name": "totalQuantity",
              "type": "uint256"
            },
            {
              "internalType": "uint32",
              "name": "id",
              "type": "uint32"
            },
            {
              "internalType": "bool",
              "name": "canPurchaseWithPrtcle",
              "type": "bool"
            },
            {
              "internalType": "uint256",
              "name": "prtclePrice",
              "type": "uint256"
            },
            {
              "internalType": "bool",
              "name": "canBeTransferred",
              "type": "bool"
            }
          ],
          "internalType": "struct ChallengeType[]",
          "name": "challengeTypes_",
          "type": "tuple[]"
        }
      ],
      "stateMutability": "view",
      "type": "function"
    },
    {
      "inputs": [],
      "name": "getNewestChallengeType",
      "outputs": [
        {
          "components": [
            {
              "internalType": "string",
              "name": "name",
              "type": "string"
            },
            {
              "internalType": "string",
              "name": "description",
              "type": "string"
            },
            {
              "internalType": "uint256",
              "name": "maxQuantity",
              "type": "uint256"
            },
            {
              "internalType": "uint256",
              "name": "totalQuantity",
              "type": "uint256"
            },
            {
              "internalType": "uint32",
              "name": "id",
              "type": "uint32"
            },
            {
              "internalType": "bool",
              "name": "canPurchaseWithPrtcle",
              "type": "bool"
            },
            {
              "internalType": "uint256",
              "name": "prtclePrice",
              "type": "uint256"
            },
            {
              "internalType": "bool",
              "name": "canBeTransferred",
              "type": "bool"
            }
          ],
          "internalType": "struct ChallengeType",
          "name": "challengeType_",
          "type": "tuple"
        }
      ],
      "stateMutability": "view",
      "type": "function"
    },
    {
      "inputs": [
        {
          "internalType": "string",
          "name": "_value",
          "type": "string"
        }
      ],
      "name": "setBaseURI",
      "outputs": [],
      "stateMutability": "nonpayable",
      "type": "function"
    },
    {
      "inputs": [
        {
          "internalType": "uint256",
          "name": "_id",
          "type": "uint256"
        }
      ],
      "name": "uri",
      "outputs": [
        {
          "internalType": "string",
          "name": "",
          "type": "string"
        }
      ],
      "stateMutability": "view",
      "type": "function"
    }
  ],
  "bytecode": "0x608060405234801561001057600080fd5b5061203e806100206000396000f3fe608060405234801561001057600080fd5b50600436106100b35760003560e01c80635cf2d9d3116100715780635cf2d9d31461016957806366202496146101895780639c8c9d87146101a95780639e1e5cf2146101bc578063e3fa1744146101cf578063e597d609146101e4576100b3565b8062fdd58e146100b85780630e89341c146100e157806339a209df14610101578063478e5542146101145780634e1273f41461013457806355f804b314610154575b600080fd5b6100cb6100c6366004611948565b6101f7565b6040516100d89190611f1e565b60405180910390f35b6100f46100ef366004611af6565b61021e565b6040516100d89190611d96565b6100cb61010f366004611971565b610281565b61012761012236600461192e565b6102b1565b6040516100d89190611c27565b6101476101423660046119a3565b61041c565b6040516100d89190611d52565b610167610162366004611a4c565b610571565b005b61017c610177366004611a0c565b610607565b6040516100d89190611cf2565b61019c61019736600461192e565b610a76565b6040516100d89190611c76565b6101276101b7366004611948565b610dc1565b61019c6101ca366004611948565b610f49565b6101d7610f5c565b6040516100d89190611f0b565b6101d76101f2366004611af6565b611088565b6001600160a01b039091166000908152600560209081526040808320938352929052205490565b600254606090821061024b5760405162461bcd60e51b815260040161024290611e76565b60405180910390fd5b60606102568361126a565b9050806040516020016102699190611bf6565b6040516020818303038152906040529150505b919050565b6001600160a01b039092166000908152602081815260408083209383529281528282209382529290925290205490565b6001600160a01b0381166000908152600660205260409020546060908067ffffffffffffffff8111156102f457634e487b7160e01b600052604160045260246000fd5b60405190808252806020026020018201604052801561032d57816020015b61031a6117a6565b8152602001906001900390816103125790505b50915060005b81811015610415576001600160a01b038416600090815260066020526040812080548390811061037357634e487b7160e01b600052603260045260246000fd5b60009182526020808320909101546001600160a01b03881683526005825260408084208285529092529120548551919250908590849081106103c557634e487b7160e01b600052603260045260246000fd5b60200260200101516020018181525050808483815181106103f657634e487b7160e01b600052603260045260246000fd5b602090810291909101015152508061040d81611fc1565b915050610333565b5050919050565b606083821461043d5760405162461bcd60e51b815260040161024290611e19565b8367ffffffffffffffff81111561046457634e487b7160e01b600052604160045260246000fd5b60405190808252806020026020018201604052801561048d578160200160208202803683370190505b50905060005b848110156105685760008484838181106104bd57634e487b7160e01b600052603260045260246000fd5b90506020020135905060008787848181106104e857634e487b7160e01b600052603260045260246000fd5b90506020020160208101906104fd919061192e565b6001600160a01b038116600090815260056020908152604080832086845290915290205485519192509085908590811061054757634e487b7160e01b600052603260045260246000fd5b6020026020010181815250505050808061056090611fc1565b915050610493565b50949350505050565b610579611398565b805161058c9060109060208401906117c0565b5060005b6002548110156106035760006105a58261126a565b905060006105b384836113cd565b90507f82f98b73196c4eeabd7ebf96a2c140e6ecbc804c7c55c4a4f3bd7e05eeb72fb381836040516105e6929190611da9565b60405180910390a1505080806105fb90611fc1565b915050610590565b5050565b6060816107e857600280546040805160208084028201810190925282815292919060009084015b828210156107dd57838290600052602060002090600702016040518061010001604052908160008201805461066290611f86565b80601f016020809104026020016040519081016040528092919081815260200182805461068e90611f86565b80156106db5780601f106106b0576101008083540402835291602001916106db565b820191906000526020600020905b8154815290600101906020018083116106be57829003601f168201915b505050505081526020016001820180546106f490611f86565b80601f016020809104026020016040519081016040528092919081815260200182805461072090611f86565b801561076d5780601f106107425761010080835404028352916020019161076d565b820191906000526020600020905b81548152906001019060200180831161075057829003601f168201915b5050509183525050600282015460208083019190915260038301546040830152600483015463ffffffff8116606084015260ff640100000000909104811615156080840152600584015460a0840152600690930154909216151560c090910152908252600192909201910161062e565b505050509050610a70565b8167ffffffffffffffff81111561080f57634e487b7160e01b600052604160045260246000fd5b60405190808252806020026020018201604052801561084857816020015b610835611844565b81526020019060019003908161082d5790505b50905060005b82811015610a6e57600284848381811061087857634e487b7160e01b600052603260045260246000fd5b905060200201358154811061089d57634e487b7160e01b600052603260045260246000fd5b9060005260206000209060070201604051806101000160405290816000820180546108c790611f86565b80601f01602080910402602001604051908101604052809291908181526020018280546108f390611f86565b80156109405780601f1061091557610100808354040283529160200191610940565b820191906000526020600020905b81548152906001019060200180831161092357829003601f168201915b5050505050815260200160018201805461095990611f86565b80601f016020809104026020016040519081016040528092919081815260200182805461098590611f86565b80156109d25780601f106109a7576101008083540402835291602001916109d2565b820191906000526020600020905b8154815290600101906020018083116109b557829003601f168201915b50505091835250506002820154602082015260038201546040820152600482015463ffffffff8116606083015260ff640100000000909104811615156080830152600583015460a0830152600690920154909116151560c0909101528251839083908110610a5057634e487b7160e01b600052603260045260246000fd5b60200260200101819052508080610a6690611fc1565b91505061084e565b505b92915050565b6001600160a01b0381166000908152600660205260409020546060908067ffffffffffffffff811115610ab957634e487b7160e01b600052604160045260246000fd5b604051908082528060200260200182016040528015610af257816020015b610adf611893565b815260200190600190039081610ad75790505b50915060005b81811015610415576001600160a01b0384166000908152600660205260408120805483908110610b3857634e487b7160e01b600052603260045260246000fd5b60009182526020808320909101546001600160a01b0388168352600582526040808420828552909252912054855191925090859084908110610b8a57634e487b7160e01b600052603260045260246000fd5b6020026020010151600001818152505080848381518110610bbb57634e487b7160e01b600052603260045260246000fd5b60209081029190910181015101526002805482908110610beb57634e487b7160e01b600052603260045260246000fd5b906000526020600020906007020160405180610100016040529081600082018054610c1590611f86565b80601f0160208091040260200160405190810160405280929190818152602001828054610c4190611f86565b8015610c8e5780601f10610c6357610100808354040283529160200191610c8e565b820191906000526020600020905b815481529060010190602001808311610c7157829003601f168201915b50505050508152602001600182018054610ca790611f86565b80601f0160208091040260200160405190810160405280929190818152602001828054610cd390611f86565b8015610d205780601f10610cf557610100808354040283529160200191610d20565b820191906000526020600020905b815481529060010190602001808311610d0357829003601f168201915b50505091835250506002820154602082015260038201546040820152600482015463ffffffff8116606083015260ff640100000000909104811615156080830152600583015460a0830152600690920154909116151560c0909101528451859084908110610d9e57634e487b7160e01b600052603260045260246000fd5b602002602001015160400181905250508080610db990611fc1565b915050610af8565b6001600160a01b03821660009081526001602090815260408083208484529091529020546060908067ffffffffffffffff811115610e0f57634e487b7160e01b600052604160045260246000fd5b604051908082528060200260200182016040528015610e4857816020015b610e356117a6565b815260200190600190039081610e2d5790505b50915060005b81811015610f41576001600160a01b03851660009081526001602090815260408083208784529091528120805483908110610e9957634e487b7160e01b600052603260045260246000fd5b9060005260206000200154905080848381518110610ec757634e487b7160e01b600052603260045260246000fd5b602090810291909101810151919091526001600160a01b03871660009081528082526040808220888352835280822084835290925220548451859084908110610f2057634e487b7160e01b600052603260045260246000fd5b60209081029190910181015101525080610f3981611fc1565b915050610e4e565b505092915050565b6060610f5583836113f9565b9392505050565b610f64611844565b60028054634e487b7160e01b600052603260045260246000fd5b815481529060010190602001808311610f7e575050509183525050600182018054602090920191610fae90611f86565b80601f0160208091040260200160405190810160405280929190818152602001828054610fda90611f86565b80156110275780601f10610ffc57610100808354040283529160200191611027565b820191906000526020600020905b81548152906001019060200180831161100a57829003601f168201915b50505091835250506002820154602082015260038201546040820152600482015463ffffffff8116606083015260ff640100000000909104811615156080830152600583015460a0830152600690920154909116151560c090910152919050565b611090611844565b60025482106110b15760405162461bcd60e51b815260040161024290611ebe565b60028054839081106110d357634e487b7160e01b600052603260045260246000fd5b9060005260206000209060070201604051806101000160405290816000820180546110fd90611f86565b80601f016020809104026020016040519081016040528092919081815260200182805461112990611f86565b80156111765780601f1061114b57610100808354040283529160200191611176565b820191906000526020600020905b81548152906001019060200180831161115957829003601f168201915b5050505050815260200160018201805461118f90611f86565b80601f01602080910402602001604051908101604052809291908181526020018280546111bb90611f86565b80156112085780601f106111dd57610100808354040283529160200191611208565b820191906000526020600020905b8154815290600101906020018083116111eb57829003601f168201915b50505091835250506002820154602082015260038201546040820152600482015463ffffffff8116606083015260ff640100000000909104811615156080830152600583015460a0830152600690920154909116151560c09091015292915050565b60608161128f57506040805180820190915260018152600360fc1b602082015261027c565b8160005b81156112b257806112a381611fc1565b915050600482901c9150611293565b600f60008267ffffffffffffffff8111156112dd57634e487b7160e01b600052604160045260246000fd5b6040519080825280601f01601f191660200182016040528015611307576020820181803683370190505b509050825b861561138e578683166009811161133057611328816030611f27565b60f81b61133f565b61133b816037611f27565b60f81b5b8361134984611f6f565b9350838151811061136a57634e487b7160e01b600052603260045260246000fd5b60200101906001600160f81b031916908160001a905350600488901c97505061130c565b5095945050505050565b6113a061177d565b600401546001600160a01b031633146113cb5760405162461bcd60e51b815260040161024290611dd7565b565b606082826040516020016113e2929190611bc7565b604051602081830303815290604052905092915050565b606060006114056117a1565b6001600160a01b038516600090815260018201602090815260408083208784529091529020549091508067ffffffffffffffff81111561145557634e487b7160e01b600052604160045260246000fd5b60405190808252806020026020018201604052801561148e57816020015b61147b611893565b8152602001906001900390816114735790505b50925060005b81811015611774576001600160a01b0386166000908152600184016020908152604080832088845290915281208054839081106114e157634e487b7160e01b600052603260045260246000fd5b60009182526020808320909101546001600160a01b038a16835286825260408084208a85528352808420828552909252912054865191925090829087908590811061153c57634e487b7160e01b600052603260045260246000fd5b602002602001015160200181815250508086848151811061156d57634e487b7160e01b600052603260045260246000fd5b6020908102919091010151526002850180548390811061159d57634e487b7160e01b600052603260045260246000fd5b9060005260206000209060070201604051806101000160405290816000820180546115c790611f86565b80601f01602080910402602001604051908101604052809291908181526020018280546115f390611f86565b80156116405780601f1061161557610100808354040283529160200191611640565b820191906000526020600020905b81548152906001019060200180831161162357829003601f168201915b5050505050815260200160018201805461165990611f86565b80601f016020809104026020016040519081016040528092919081815260200182805461168590611f86565b80156116d25780601f106116a7576101008083540402835291602001916116d2565b820191906000526020600020905b8154815290600101906020018083116116b557829003601f168201915b50505091835250506002820154602082015260038201546040820152600482015463ffffffff8116606083015260ff640100000000909104811615156080830152600583015460a0830152600690920154909116151560c090910152865187908590811061175057634e487b7160e01b600052603260045260246000fd5b6020026020010151604001819052505050808061176c90611fc1565b915050611494565b50505092915050565b7fc8fcad8db84d3cc18b4c41d551ea0ee66dd599cde068d998e57d5e09332c131c90565b600090565b604051806040016040528060008152602001600081525090565b8280546117cc90611f86565b90600052602060002090601f0160209004810192826117ee5760008555611834565b82601f1061180757805160ff1916838001178555611834565b82800160010185558215611834579182015b82811115611834578251825591602001919060010190611819565b506118409291506118b9565b5090565b60405180610100016040528060608152602001606081526020016000815260200160008152602001600063ffffffff168152602001600015158152602001600081526020016000151581525090565b604051806060016040528060008152602001600081526020016118b4611844565b905290565b5b8082111561184057600081556001016118ba565b80356001600160a01b038116811461027c57600080fd5b60008083601f8401126118f6578081fd5b50813567ffffffffffffffff81111561190d578182fd5b602083019150836020808302850101111561192757600080fd5b9250929050565b60006020828403121561193f578081fd5b610f55826118ce565b6000806040838503121561195a578081fd5b611963836118ce565b946020939093013593505050565b600080600060608486031215611985578081fd5b61198e846118ce565b95602085013595506040909401359392505050565b600080600080604085870312156119b8578081fd5b843567ffffffffffffffff808211156119cf578283fd5b6119db888389016118e5565b909650945060208701359150808211156119f3578283fd5b50611a00878288016118e5565b95989497509550505050565b60008060208385031215611a1e578182fd5b823567ffffffffffffffff811115611a34578283fd5b611a40858286016118e5565b90969095509350505050565b600060208284031215611a5d578081fd5b813567ffffffffffffffff80821115611a74578283fd5b818401915084601f830112611a87578283fd5b813581811115611a9957611a99611ff2565b604051601f8201601f19908116603f01168101908382118183101715611ac157611ac1611ff2565b81604052828152876020848701011115611ad9578586fd5b826020860160208301379182016020019490945295945050505050565b600060208284031215611b07578081fd5b5035919050565b15159052565b60008151808452611b2c816020860160208601611f3f565b601f01601f19169290920160200192915050565b60006101008251818552611b5682860182611b14565b91505060208301518482036020860152611b708282611b14565b915050604083015160408501526060830151606085015263ffffffff608084015116608085015260a0830151151560a085015260c083015160c085015260e0830151611bbf60e0860182611b0e565b509392505050565b60008351611bd9818460208801611f3f565b835190830190611bed818360208801611f3f565b01949350505050565b6000680697066733a2f2f66360bc1b82528251611c1a816009850160208701611f3f565b9190910160090192915050565b602080825282518282018190526000919060409081850190868401855b82811015611c6957815180518552860151868501529284019290850190600101611c44565b5091979650505050505050565b60208082528251828201819052600091906040908185019080840286018301878501865b83811015611ce457888303603f1901855281518051845287810151888501528601516060878501819052611cd081860183611b40565b968901969450505090860190600101611c9a565b509098975050505050505050565b6000602080830181845280855180835260408601915060408482028701019250838701855b82811015611d4557603f19888603018452611d33858351611b40565b94509285019290850190600101611d17565b5092979650505050505050565b6020808252825182820181905260009190848201906040850190845b81811015611d8a57835183529284019291840191600101611d6e565b50909695505050505050565b600060208252610f556020830184611b14565b600060408252611dbc6040830185611b14565b8281036020840152611dce8185611b14565b95945050505050565b60208082526022908201527f4c69624469616d6f6e643a204d75737420626520636f6e7472616374206f776e60408201526132b960f11b606082015260800190565b60208082526037908201527f4368616c6c656e67657346616365743a205f6f776e657273206c656e6774682060408201527f6e6f742073616d65206173205f696473206c656e677468000000000000000000606082015260800190565b60208082526028908201527f4368616c6c656e67657346616365743a204368616c6c656e6765205f6964206e6040820152671bdd08199bdd5b9960c21b606082015260800190565b6020808252602d908201527f4368616c6c656e67657346616365743a204368616c6c656e676520747970652060408201526c191bd95cdb89dd08195e1a5cdd609a1b606082015260800190565b600060208252610f556020830184611b40565b90815260200190565b60008219821115611f3a57611f3a611fdc565b500190565b60005b83811015611f5a578181015183820152602001611f42565b83811115611f69576000848401525b50505050565b600081611f7e57611f7e611fdc565b506000190190565b600281046001821680611f9a57607f821691505b60208210811415611fbb57634e487b7160e01b600052602260045260246000fd5b50919050565b6000600019821415611fd557611fd5611fdc565b5060010190565b634e487b7160e01b600052601160045260246000fd5b634e487b7160e01b600052604160045260246000fdfea26469706673582212206349199b25e6d91e3f9346ce0af830ca788b3d4726e7752bd2a0150e3a0c501064736f6c63430008010033",
  "linkReferences": {},
  "deployedLinkReferences": {}
}