{
  "_format": "hh-sol-artifact-1",
  "contractName": "Particle",
  "sourceName": "contracts/Particle.sol",
  "abi": [
    {
      "inputs": [
        {
          "internalType": "address",
          "name": "initOwner",
          "type": "address"
        }
      ],
      "stateMutability": "nonpayable",
      "type": "constructor"
    },
    {
      "anonymous": false,
      "inputs": [
        {
          "indexed": true,
          "internalType": "address",
          "name": "_owner",
          "type": "address"
        },
        {
          "indexed": true,
          "internalType": "address",
          "name": "_spender",
          "type": "address"
        },
        {
          "indexed": false,
          "internalType": "uint256",
          "name": "_value",
          "type": "uint256"
        }
      ],
      "name": "Approval",
      "type": "event"
    },
    {
      "anonymous": false,
      "inputs": [
        {
          "indexed": true,
          "internalType": "address",
          "name": "previousOwner",
          "type": "address"
        },
        {
          "indexed": true,
          "internalType": "address",
          "name": "newOwner",
          "type": "address"
        }
      ],
      "name": "OwnershipTransferred",
      "type": "event"
    },
    {
      "anonymous": false,
      "inputs": [
        {
          "indexed": true,
          "internalType": "address",
          "name": "_from",
          "type": "address"
        },
        {
          "indexed": true,
          "internalType": "address",
          "name": "_to",
          "type": "address"
        },
        {
          "indexed": false,
          "internalType": "uint256",
          "name": "_value",
          "type": "uint256"
        }
      ],
      "name": "Transfer",
      "type": "event"
    },
    {
      "inputs": [
        {
          "internalType": "address",
          "name": "_contract",
          "type": "address"
        }
      ],
      "name": "addApprovedContract",
      "outputs": [],
      "stateMutability": "nonpayable",
      "type": "function"
    },
    {
      "inputs": [
        {
          "internalType": "address",
          "name": "_owner",
          "type": "address"
        },
        {
          "internalType": "address",
          "name": "_spender",
          "type": "address"
        }
      ],
      "name": "allowance",
      "outputs": [
        {
          "internalType": "uint256",
          "name": "remaining_",
          "type": "uint256"
        }
      ],
      "stateMutability": "view",
      "type": "function"
    },
    {
      "inputs": [
        {
          "internalType": "address",
          "name": "_spender",
          "type": "address"
        },
        {
          "internalType": "uint256",
          "name": "_value",
          "type": "uint256"
        }
      ],
      "name": "approve",
      "outputs": [
        {
          "internalType": "bool",
          "name": "success",
          "type": "bool"
        }
      ],
      "stateMutability": "nonpayable",
      "type": "function"
    },
    {
      "inputs": [],
      "name": "approvedContracts",
      "outputs": [
        {
          "internalType": "address[]",
          "name": "contracts_",
          "type": "address[]"
        }
      ],
      "stateMutability": "view",
      "type": "function"
    },
    {
      "inputs": [
        {
          "internalType": "address",
          "name": "_owner",
          "type": "address"
        }
      ],
      "name": "balanceOf",
      "outputs": [
        {
          "internalType": "uint256",
          "name": "balance",
          "type": "uint256"
        }
      ],
      "stateMutability": "view",
      "type": "function"
    },
    {
      "inputs": [],
      "name": "decimals",
      "outputs": [
        {
          "internalType": "uint8",
          "name": "",
          "type": "uint8"
        }
      ],
      "stateMutability": "pure",
      "type": "function"
    },
    {
      "inputs": [
        {
          "internalType": "address",
          "name": "_spender",
          "type": "address"
        },
        {
          "internalType": "uint256",
          "name": "_value",
          "type": "uint256"
        }
      ],
      "name": "decreaseAllowance",
      "outputs": [
        {
          "internalType": "bool",
          "name": "success",
          "type": "bool"
        }
      ],
      "stateMutability": "nonpayable",
      "type": "function"
    },
    {
      "inputs": [
        {
          "internalType": "address",
          "name": "_spender",
          "type": "address"
        },
        {
          "internalType": "uint256",
          "name": "_value",
          "type": "uint256"
        }
      ],
      "name": "increaseAllowance",
      "outputs": [
        {
          "internalType": "bool",
          "name": "success",
          "type": "bool"
        }
      ],
      "stateMutability": "nonpayable",
      "type": "function"
    },
    {
      "inputs": [],
      "name": "mint",
      "outputs": [],
      "stateMutability": "nonpayable",
      "type": "function"
    },
    {
      "inputs": [
        {
          "internalType": "address",
          "name": "_user",
          "type": "address"
        }
      ],
      "name": "mintTo",
      "outputs": [],
      "stateMutability": "nonpayable",
      "type": "function"
    },
    {
      "inputs": [],
      "name": "name",
      "outputs": [
        {
          "internalType": "string",
          "name": "",
          "type": "string"
        }
      ],
      "stateMutability": "pure",
      "type": "function"
    },
    {
      "inputs": [],
      "name": "owner",
      "outputs": [
        {
          "internalType": "address",
          "name": "owner_",
          "type": "address"
        }
      ],
      "stateMutability": "view",
      "type": "function"
    },
    {
      "inputs": [
        {
          "internalType": "address",
          "name": "_contract",
          "type": "address"
        }
      ],
      "name": "removeApprovedContract",
      "outputs": [],
      "stateMutability": "nonpayable",
      "type": "function"
    },
    {
      "inputs": [],
      "name": "symbol",
      "outputs": [
        {
          "internalType": "string",
          "name": "",
          "type": "string"
        }
      ],
      "stateMutability": "pure",
      "type": "function"
    },
    {
      "inputs": [],
      "name": "totalSupply",
      "outputs": [
        {
          "internalType": "uint256",
          "name": "",
          "type": "uint256"
        }
      ],
      "stateMutability": "view",
      "type": "function"
    },
    {
      "inputs": [
        {
          "internalType": "address",
          "name": "_to",
          "type": "address"
        },
        {
          "internalType": "uint256",
          "name": "_value",
          "type": "uint256"
        }
      ],
      "name": "transfer",
      "outputs": [
        {
          "internalType": "bool",
          "name": "success",
          "type": "bool"
        }
      ],
      "stateMutability": "nonpayable",
      "type": "function"
    },
    {
      "inputs": [
        {
          "internalType": "address",
          "name": "_from",
          "type": "address"
        },
        {
          "internalType": "address",
          "name": "_to",
          "type": "address"
        },
        {
          "internalType": "uint256",
          "name": "_value",
          "type": "uint256"
        }
      ],
      "name": "transferFrom",
      "outputs": [
        {
          "internalType": "bool",
          "name": "success",
          "type": "bool"
        }
      ],
      "stateMutability": "nonpayable",
      "type": "function"
    },
    {
      "inputs": [
        {
          "internalType": "address",
          "name": "_newOwner",
          "type": "address"
        }
      ],
      "name": "transferOwnership",
      "outputs": [],
      "stateMutability": "nonpayable",
      "type": "function"
    }
  ],
  "bytecode": "0x608060405234801561001057600080fd5b5060405161108138038061108183398101604081905261002f91610091565b6100388161003e565b506100bf565b6103ec80546001600160a01b038381166001600160a01b0319831681179093556040519116919082907f8be0079c531659141344cd1fd0a4f28419497f9722a3daafe3b4186f6b6457e090600090a35050565b6000602082840312156100a2578081fd5b81516001600160a01b03811681146100b8578182fd5b9392505050565b610fb3806100ce6000396000f3fe608060405234801561001057600080fd5b50600436106101165760003560e01c8063755edd17116100a2578063a457c2d711610071578063a457c2d714610214578063a9059cbb14610227578063dce860031461023a578063dd62ed3e1461024f578063f2fde38b1461026257610116565b8063755edd17146101d95780638da5cb5b146101ec57806395d89b411461011b5780639eea22791461020157610116565b806318160ddd116100e957806318160ddd1461017657806323b872dd1461018b578063313ce5671461019e57806339509351146101b357806370a08231146101c657610116565b806306fdde031461011b578063095ea7b3146101395780631249c58b14610159578063135171be14610163575b600080fd5b610123610275565b6040516101309190610c85565b60405180910390f35b61014c610147366004610bf0565b610295565b6040516101309190610c7a565b6101616102eb565b005b610161610171366004610b62565b6103a3565b61017e610456565b6040516101309190610eb6565b61014c610199366004610bb5565b61046d565b6101a6610604565b6040516101309190610ebf565b61014c6101c1366004610bf0565b610609565b61017e6101d4366004610b62565b61069e565b6101616101e7366004610b62565b6106b9565b6101f461077b565b6040516101309190610c19565b61016161020f366004610b62565b61078b565b61014c610222366004610bf0565b6108ef565b61014c610235366004610bf0565b610994565b610242610a31565b6040516101309190610c2d565b61017e61025d366004610b83565b610a93565b610161610270366004610b62565b610abc565b604080518082019091526006815265505254434c4560d01b602082015290565b336000818152602081815260408083206001600160a01b03871680855292528083208590555191929091600080516020610f5e833981519152906102da908690610eb6565b60405180910390a350600192915050565b33600090815260016020526040812080546a084595161401484a00000092839291610317908490610ecd565b90915550506103ec8054829190601490610342908490600160a01b90046001600160601b0316610ee5565b92506101000a8154816001600160601b0302191690836001600160601b03160217905550336001600160a01b031660006001600160a01b0316600080516020610f3e833981519152836040516103989190610eb6565b60405180910390a350565b6103ec546001600160a01b031633146103bb57600080fd5b6001600160a01b038116600090815260036020526040902054156103fa5760405162461bcd60e51b81526004016103f190610e23565b60405180910390fd5b600280546001810182557f405787fa12a823e0f2b7631cc41b3ba8828b3321ca811111fa75cd3aa3bb5ace0180546001600160a01b039093166001600160a01b0319909316831790555460009182526003602052604090912055565b6103ec54600160a01b90046001600160601b031690565b6001600160a01b03831660008181526001602052604081205490913314806104a357503360009081526003602052604090205415155b156104ad57610559565b6001600160a01b038516600090815260208181526040808320338452909152902054838110156104ef5760405162461bcd60e51b81526004016103f190610da1565b6000198114610557576105028482610f10565b6001600160a01b03871660008181526020818152604080832033808552925290912092909255600080516020610f5e8339815191526105418785610f10565b60405161054e9190610eb6565b60405180910390a35b505b828110156105795760405162461bcd60e51b81526004016103f190610d60565b6105838382610f10565b6001600160a01b0380871660009081526001602052604080822093909355908616815290812080548592906105b9908490610ecd565b92505081905550836001600160a01b0316856001600160a01b0316600080516020610f3e833981519152856040516105f19190610eb6565b60405180910390a3506001949350505050565b601290565b336000908152602081815260408083206001600160a01b0386168452909152812054816106368483610ecd565b9050818110156106585760405162461bcd60e51b81526004016103f190610e6e565b336000818152602081815260408083206001600160a01b038a168085529252918290208490559051909190600080516020610f5e833981519152906105f1908590610eb6565b6001600160a01b031660009081526001602052604090205490565b6001600160a01b038116600090815260016020526040812080546a084595161401484a000000928392916106ee908490610ecd565b90915550506103ec8054829190601490610719908490600160a01b90046001600160601b0316610ee5565b92506101000a8154816001600160601b0302191690836001600160601b03160217905550816001600160a01b031660006001600160a01b0316600080516020610f3e8339815191528360405161076f9190610eb6565b60405180910390a35050565b6103ec546001600160a01b031690565b6103ec546001600160a01b031633146107a357600080fd5b6001600160a01b038116600090815260036020526040902054806107d95760405162461bcd60e51b81526004016103f190610dd8565b60025481811461088e57600060026107f2600184610f10565b8154811061081057634e487b7160e01b600052603260045260246000fd5b6000918252602090912001546001600160a01b03169050806002610835600186610f10565b8154811061085357634e487b7160e01b600052603260045260246000fd5b600091825260208083209190910180546001600160a01b0319166001600160a01b039485161790559290911681526003909152604090208290555b60028054806108ad57634e487b7160e01b600052603160045260246000fd5b60008281526020808220830160001990810180546001600160a01b03191690559092019092556001600160a01b03949094168152600390935250506040812055565b336000908152602081815260408083206001600160a01b0386168452909152812054828110156109315760405162461bcd60e51b81526004016103f190610d1a565b61093b8382610f10565b336000818152602081815260408083206001600160a01b038a16808552925291829020849055905192935091600080516020610f5e83398151915290610982908590610eb6565b60405180910390a35060019392505050565b33600090815260016020526040812054828110156109c45760405162461bcd60e51b81526004016103f190610d60565b6109ce8382610f10565b33600090815260016020526040808220929092556001600160a01b03861681529081208054859290610a01908490610ecd565b90915550506040516001600160a01b038516903390600080516020610f3e83398151915290610982908790610eb6565b60606002805480602002602001604051908101604052809291908181526020018280548015610a8957602002820191906000526020600020905b81546001600160a01b03168152600190910190602001808311610a6b575b5050505050905090565b6001600160a01b0391821660009081526020818152604080832093909416825291909152205490565b6103ec546001600160a01b03163314610ae75760405162461bcd60e51b81526004016103f190610cd8565b610af081610af3565b50565b6103ec80546001600160a01b038381166001600160a01b0319831681179093556040519116919082907f8be0079c531659141344cd1fd0a4f28419497f9722a3daafe3b4186f6b6457e090600090a35050565b80356001600160a01b0381168114610b5d57600080fd5b919050565b600060208284031215610b73578081fd5b610b7c82610b46565b9392505050565b60008060408385031215610b95578081fd5b610b9e83610b46565b9150610bac60208401610b46565b90509250929050565b600080600060608486031215610bc9578081fd5b610bd284610b46565b9250610be060208501610b46565b9150604084013590509250925092565b60008060408385031215610c02578182fd5b610c0b83610b46565b946020939093013593505050565b6001600160a01b0391909116815260200190565b6020808252825182820181905260009190848201906040850190845b81811015610c6e5783516001600160a01b031683529284019291840191600101610c49565b50909695505050505050565b901515815260200190565b6000602080835283518082850152825b81811015610cb157858101830151858201604001528201610c95565b81811115610cc25783604083870101525b50601f01601f1916929092016040019392505050565b60208082526022908201527f4c69624469616d6f6e643a204d75737420626520636f6e7472616374206f776e60408201526132b960f11b606082015260800190565b60208082526026908201527f4748535446616365743a20416c6c6f77616e63652064656372656173656420626040820152650656c6f7720360d41b606082015260800190565b60208082526021908201527f474853543a204e6f7420656e6f756768204748535420746f207472616e7366656040820152603960f91b606082015260800190565b6020808252601d908201527f474853543a204e6f7420616c6c6f77656420746f207472616e73666572000000604082015260600190565b6020808252602b908201527f4748535446616365743a20417070726f76656420636f6e747261637420646f6560408201526a1cc81b9bdd08195e1a5cdd60aa1b606082015260800190565b6020808252602b908201527f4748535446616365743a20417070726f76656420636f6e747261637420616c7260408201526a656164792065786973747360a81b606082015260800190565b60208082526028908201527f4748535446616365743a20416c6c6f77616e636520696e637265617365206f76604082015267195c999b1bddd95960c21b606082015260800190565b90815260200190565b60ff91909116815260200190565b60008219821115610ee057610ee0610f27565b500190565b60006001600160601b03808316818516808303821115610f0757610f07610f27565b01949350505050565b600082821015610f2257610f22610f27565b500390565b634e487b7160e01b600052601160045260246000fdfeddf252ad1be2c89b69c2b068fc378daa952ba7f163c4a11628f55a4df523b3ef8c5be1e5ebec7d5bd14f71427d1e84f3dd0314c0f7b2291e5b200ac8c7c3b925a26469706673582212208032bcbae94458dc928605a7701fee410294282cfc86d9b548a394f3d8510a1964736f6c63430008010033",
  "linkReferences": {},
  "deployedLinkReferences": {}
}