{
  "_format": "hh-sol-artifact-1",
  "contractName": "ChallengesTransferFacet",
  "sourceName": "contracts/facets/ChallengeTransferFacet.sol",
  "abi": [
    {
      "inputs": [
        {
          "internalType": "address",
          "name": "_from",
          "type": "address"
        },
        {
          "internalType": "address",
          "name": "_toContract",
          "type": "address"
        },
        {
          "internalType": "uint256[]",
          "name": "_toTokenIds",
          "type": "uint256[]"
        },
        {
          "internalType": "uint256[][]",
          "name": "_ids",
          "type": "uint256[][]"
        },
        {
          "internalType": "uint256[][]",
          "name": "_values",
          "type": "uint256[][]"
        }
      ],
      "name": "batchBatchTransferToParent",
      "outputs": [],
      "stateMutability": "nonpayable",
      "type": "function"
    },
    {
      "inputs": [
        {
          "internalType": "address",
          "name": "_fromContract",
          "type": "address"
        },
        {
          "internalType": "uint256",
          "name": "_fromTokenId",
          "type": "uint256"
        },
        {
          "internalType": "address",
          "name": "_toContract",
          "type": "address"
        },
        {
          "internalType": "uint256",
          "name": "_toTokenId",
          "type": "uint256"
        },
        {
          "internalType": "uint256[]",
          "name": "_ids",
          "type": "uint256[]"
        },
        {
          "internalType": "uint256[]",
          "name": "_values",
          "type": "uint256[]"
        }
      ],
      "name": "batchTransferAsChild",
      "outputs": [],
      "stateMutability": "nonpayable",
      "type": "function"
    },
    {
      "inputs": [
        {
          "internalType": "address",
          "name": "_fromContract",
          "type": "address"
        },
        {
          "internalType": "uint256",
          "name": "_fromTokenId",
          "type": "uint256"
        },
        {
          "internalType": "address",
          "name": "_to",
          "type": "address"
        },
        {
          "internalType": "uint256[]",
          "name": "_ids",
          "type": "uint256[]"
        },
        {
          "internalType": "uint256[]",
          "name": "_values",
          "type": "uint256[]"
        }
      ],
      "name": "batchTransferFromParent",
      "outputs": [],
      "stateMutability": "nonpayable",
      "type": "function"
    },
    {
      "inputs": [
        {
          "internalType": "address",
          "name": "_from",
          "type": "address"
        },
        {
          "internalType": "address",
          "name": "_toContract",
          "type": "address"
        },
        {
          "internalType": "uint256",
          "name": "_toTokenId",
          "type": "uint256"
        },
        {
          "internalType": "uint256[]",
          "name": "_ids",
          "type": "uint256[]"
        },
        {
          "internalType": "uint256[]",
          "name": "_values",
          "type": "uint256[]"
        }
      ],
      "name": "batchTransferToParent",
      "outputs": [],
      "stateMutability": "nonpayable",
      "type": "function"
    },
    {
      "inputs": [
        {
          "internalType": "address",
          "name": "_to",
          "type": "address"
        },
        {
          "internalType": "uint256",
          "name": "_tokenId",
          "type": "uint256"
        },
        {
          "internalType": "uint256[]",
          "name": "_challengeIds",
          "type": "uint256[]"
        },
        {
          "internalType": "uint256[]",
          "name": "_values",
          "type": "uint256[]"
        }
      ],
      "name": "extractChallengesFromBurnedDathlete",
      "outputs": [],
      "stateMutability": "nonpayable",
      "type": "function"
    },
    {
      "inputs": [
        {
          "internalType": "address",
          "name": "_to",
          "type": "address"
        },
        {
          "internalType": "uint256[]",
          "name": "_challengeIds",
          "type": "uint256[]"
        },
        {
          "internalType": "uint256[]",
          "name": "_values",
          "type": "uint256[]"
        }
      ],
      "name": "extractChallengesFromDiamond",
      "outputs": [],
      "stateMutability": "nonpayable",
      "type": "function"
    },
    {
      "inputs": [
        {
          "internalType": "address",
          "name": "",
          "type": "address"
        },
        {
          "internalType": "address",
          "name": "",
          "type": "address"
        },
        {
          "internalType": "uint256[]",
          "name": "",
          "type": "uint256[]"
        },
        {
          "internalType": "uint256[]",
          "name": "",
          "type": "uint256[]"
        },
        {
          "internalType": "bytes",
          "name": "",
          "type": "bytes"
        }
      ],
      "name": "onERC1155BatchReceived",
      "outputs": [
        {
          "internalType": "bytes4",
          "name": "",
          "type": "bytes4"
        }
      ],
      "stateMutability": "pure",
      "type": "function"
    },
    {
      "inputs": [
        {
          "internalType": "address",
          "name": "",
          "type": "address"
        },
        {
          "internalType": "address",
          "name": "",
          "type": "address"
        },
        {
          "internalType": "uint256",
          "name": "",
          "type": "uint256"
        },
        {
          "internalType": "uint256",
          "name": "",
          "type": "uint256"
        },
        {
          "internalType": "bytes",
          "name": "",
          "type": "bytes"
        }
      ],
      "name": "onERC1155Received",
      "outputs": [
        {
          "internalType": "bytes4",
          "name": "",
          "type": "bytes4"
        }
      ],
      "stateMutability": "pure",
      "type": "function"
    },
    {
      "inputs": [
        {
          "internalType": "address",
          "name": "_from",
          "type": "address"
        },
        {
          "internalType": "address",
          "name": "_to",
          "type": "address"
        },
        {
          "internalType": "uint256[]",
          "name": "_ids",
          "type": "uint256[]"
        },
        {
          "internalType": "uint256[]",
          "name": "_values",
          "type": "uint256[]"
        },
        {
          "internalType": "bytes",
          "name": "_data",
          "type": "bytes"
        }
      ],
      "name": "safeBatchTransferFrom",
      "outputs": [],
      "stateMutability": "nonpayable",
      "type": "function"
    },
    {
      "inputs": [
        {
          "internalType": "address",
          "name": "_from",
          "type": "address"
        },
        {
          "internalType": "address",
          "name": "_to",
          "type": "address"
        },
        {
          "internalType": "uint256",
          "name": "_id",
          "type": "uint256"
        },
        {
          "internalType": "uint256",
          "name": "_value",
          "type": "uint256"
        },
        {
          "internalType": "bytes",
          "name": "_data",
          "type": "bytes"
        }
      ],
      "name": "safeTransferFrom",
      "outputs": [],
      "stateMutability": "nonpayable",
      "type": "function"
    },
    {
      "inputs": [
        {
          "internalType": "address",
          "name": "_fromContract",
          "type": "address"
        },
        {
          "internalType": "uint256",
          "name": "_fromTokenId",
          "type": "uint256"
        },
        {
          "internalType": "address",
          "name": "_toContract",
          "type": "address"
        },
        {
          "internalType": "uint256",
          "name": "_toTokenId",
          "type": "uint256"
        },
        {
          "internalType": "uint256",
          "name": "_id",
          "type": "uint256"
        },
        {
          "internalType": "uint256",
          "name": "_value",
          "type": "uint256"
        }
      ],
      "name": "transferAsChild",
      "outputs": [],
      "stateMutability": "nonpayable",
      "type": "function"
    },
    {
      "inputs": [
        {
          "internalType": "address",
          "name": "_fromContract",
          "type": "address"
        },
        {
          "internalType": "uint256",
          "name": "_fromTokenId",
          "type": "uint256"
        },
        {
          "internalType": "address",
          "name": "_to",
          "type": "address"
        },
        {
          "internalType": "uint256",
          "name": "_id",
          "type": "uint256"
        },
        {
          "internalType": "uint256",
          "name": "_value",
          "type": "uint256"
        }
      ],
      "name": "transferFromParent",
      "outputs": [],
      "stateMutability": "nonpayable",
      "type": "function"
    },
    {
      "inputs": [
        {
          "internalType": "address",
          "name": "_from",
          "type": "address"
        },
        {
          "internalType": "address",
          "name": "_toContract",
          "type": "address"
        },
        {
          "internalType": "uint256",
          "name": "_toTokenId",
          "type": "uint256"
        },
        {
          "internalType": "uint256",
          "name": "_id",
          "type": "uint256"
        },
        {
          "internalType": "uint256",
          "name": "_value",
          "type": "uint256"
        }
      ],
      "name": "transferToParent",
      "outputs": [],
      "stateMutability": "nonpayable",
      "type": "function"
    }
  ],
  "bytecode": "0x608060405234801561001057600080fd5b5061295a806100206000396000f3fe608060405234801561001057600080fd5b50600436106100cf5760003560e01c80636c71c40b1161008c578063cd64a14811610066578063cd64a14814610197578063ea69aae2146101aa578063f23a6e61146101bd578063f242432a146101d0576100cf565b80636c71c40b146101485780637dc170161461015b578063bc197c811461016e576100cf565b8063271a6c59146100d45780632eb2c2d6146100e95780633936b8d2146100fc5780633c3b3c001461010f5780634d11f02e146101225780636a8926e814610135575b600080fd5b6100e76100e2366004612104565b6101e3565b005b6100e76100f7366004611d77565b610308565b6100e761010a366004611f34565b6104cd565b6100e761011d366004611cbc565b6105d1565b6100e7610130366004612155565b610704565b6100e7610143366004612080565b610853565b6100e7610156366004612004565b610a40565b6100e7610169366004611f84565b610bfa565b61018161017c366004611d77565b610cfd565b60405161018e91906123d6565b60405180910390f35b6100e76101a53660046121b0565b610d11565b6100e76101b8366004611e1e565b610e8d565b6101816101cb366004611eba565b61102b565b6100e76101de366004611eba565b61103d565b6001600160a01b0383166102125760405162461bcd60e51b8152600401610209906123eb565b60405180910390fd5b600280548390811061023457634e487b7160e01b600052603260045260246000fd5b600091825260209091206006600790920201015460ff166102675760405162461bcd60e51b8152600401610209906126cd565b33610273818787611177565b61027f86868585611427565b61028a8484846116a7565b836001600160a01b0316866001600160a01b0316826001600160a01b03166000805160206128c583398151915286866040516102c79291906127d7565b60405180910390a48285876001600160a01b03166000805160206128e5833981519152856040516102f891906127ce565b60405180910390a4505050505050565b6001600160a01b03871661032e5760405162461bcd60e51b8152600401610209906123eb565b84831461034d5760405162461bcd60e51b81526004016102099061277d565b336001600160a01b03891681148061038a57506001600160a01b03808a166000908152600d602090815260408083209385168352929052205460ff165b6103a65760405162461bcd60e51b815260040161020990612720565b60005b868110156104325760008888838181106103d357634e487b7160e01b600052603260045260246000fd5b90506020020135905060008787848181106103fe57634e487b7160e01b600052603260045260246000fd5b9050602002013590506104128c838361176b565b61041d8b83836116a7565b5050808061042a9061285b565b9150506103a9565b50876001600160a01b0316896001600160a01b0316826001600160a01b03166000805160206128a58339815191528a8a8a8a60405161047494939291906123af565b60405180910390a46104c2818a8a8a8a8a8a8a8a8080601f0160208091040260200160405190810160405280939291908181526020018383808284376000920191909152506119ab92505050565b505050505050505050565b6001600160a01b0384166104f35760405162461bcd60e51b8152600401610209906123eb565b336001600160a01b03861681148061053057506001600160a01b038087166000908152600d602090815260408083209385168352929052205460ff165b61054c5760405162461bcd60e51b815260040161020990612720565b61055786848461176b565b61056385858585611a6c565b846001600160a01b0316866001600160a01b0316826001600160a01b03166000805160206128c583398151915286866040516105a09291906127d7565b60405180910390a48284866001600160a01b0316600080516020612905833981519152856040516102f891906127ce565b6001600160a01b0387166105f75760405162461bcd60e51b8152600401610209906123eb565b8483146106165760405162461bcd60e51b8152600401610209906125f0565b8281146106355760405162461bcd60e51b815260040161020990612536565b60005b858110156104c257600087878381811061066257634e487b7160e01b600052603260045260246000fd5b90506020020135905036600087878581811061068e57634e487b7160e01b600052603260045260246000fd5b90506020028101906106a091906127e5565b915091503660008787878181106106c757634e487b7160e01b600052603260045260246000fd5b90506020028101906106d991906127e5565b915091506106ec8e8e8787878787610e8d565b505050505080806106fc9061285b565b915050610638565b6001600160a01b03841661072a5760405162461bcd60e51b8152600401610209906123eb565b600280548390811061074c57634e487b7160e01b600052603260045260246000fd5b600091825260209091206006600790920201015460ff1661077f5760405162461bcd60e51b8152600401610209906126cd565b3361078b818888611177565b61079787878585611427565b6107a385858585611a6c565b846001600160a01b0316876001600160a01b0316826001600160a01b03166000805160206128c583398151915286866040516107e09291906127d7565b60405180910390a48286886001600160a01b03166000805160206128e58339815191528560405161081191906127ce565b60405180910390a48284866001600160a01b03166000805160206129058339815191528560405161084291906127ce565b60405180910390a450505050505050565b8281146108725760405162461bcd60e51b815260040161020990612536565b6001600160a01b0386166108985760405162461bcd60e51b8152600401610209906123eb565b336108a4818a8a611177565b60005b848110156109eb5760008686838181106108d157634e487b7160e01b600052603260045260246000fd5b90506020020135905060008585848181106108fc57634e487b7160e01b600052603260045260246000fd5b9050602002013590506000600201828154811061092957634e487b7160e01b600052603260045260246000fd5b600091825260209091206006600790920201015460ff1661095c5760405162461bcd60e51b8152600401610209906126cd565b6109688c8c8484611427565b6109748a8a8484611a6c565b818b8d6001600160a01b03166000805160206128e58339815191528460405161099d91906127ce565b60405180910390a481898b6001600160a01b0316600080516020612905833981519152846040516109ce91906127ce565b60405180910390a4505080806109e39061285b565b9150506108a7565b50866001600160a01b0316896001600160a01b0316826001600160a01b03166000805160206128a583398151915288888888604051610a2d94939291906123af565b60405180910390a4505050505050505050565b828114610a5f5760405162461bcd60e51b815260040161020990612536565b6001600160a01b038516610a855760405162461bcd60e51b8152600401610209906123eb565b33610a91818989611177565b60005b84811015610ba6576000868683818110610abe57634e487b7160e01b600052603260045260246000fd5b9050602002013590506000858584818110610ae957634e487b7160e01b600052603260045260246000fd5b90506020020135905060006002018281548110610b1657634e487b7160e01b600052603260045260246000fd5b600091825260209091206006600790920201015460ff16610b495760405162461bcd60e51b8152600401610209906126cd565b610b558b8b8484611427565b610b608983836116a7565b818a8c6001600160a01b03166000805160206128e583398151915284604051610b8991906127ce565b60405180910390a450508080610b9e9061285b565b915050610a94565b50856001600160a01b0316886001600160a01b0316826001600160a01b03166000805160206128a583398151915288888888604051610be894939291906123af565b60405180910390a45050505050505050565b3360008181526016602052604090205460ff161515600114610c2e5760405162461bcd60e51b815260040161020990612593565b3360005b85811015610cbb576000878783818110610c5c57634e487b7160e01b600052603260045260246000fd5b9050602002013590506000868684818110610c8757634e487b7160e01b600052603260045260246000fd5b905060200201359050610c9b30838361176b565b610ca68a83836116a7565b50508080610cb39061285b565b915050610c32565b50806001600160a01b0316306001600160a01b0316826001600160a01b03166000805160206128a58339815191528989898960405161084294939291906123af565b63bc197c8160e01b98975050505050505050565b3360008181526016602052604090205460ff161515600114610d455760405162461bcd60e51b815260040161020990612593565b600086815260086020526040902080543391906001600160a01b031615610d7e5760405162461bcd60e51b81526004016102099061264e565b60005b86811015610e81576000888883818110610dab57634e487b7160e01b600052603260045260246000fd5b9050602002013590506000878784818110610dd657634e487b7160e01b600052603260045260246000fd5b905060200201359050610deb308c8484611427565b610df68c83836116a7565b818b866001600160a01b03166000805160206128e583398151915284604051610e1f91906127ce565b60405180910390a48b6001600160a01b0316306001600160a01b0316866001600160a01b03166000805160206128c58339815191528585604051610e649291906127d7565b60405180910390a450508080610e799061285b565b915050610d81565b50505050505050505050565b6001600160a01b038616610eb35760405162461bcd60e51b8152600401610209906123eb565b828114610ed25760405162461bcd60e51b815260040161020990612536565b336001600160a01b038816811480610f0f57506001600160a01b038089166000908152600d602090815260408083209385168352929052205460ff165b610f2b5760405162461bcd60e51b815260040161020990612720565b60005b84811015610fe9576000868683818110610f5857634e487b7160e01b600052603260045260246000fd5b9050602002013590506000858584818110610f8357634e487b7160e01b600052603260045260246000fd5b905060200201359050610f978b838361176b565b610fa38a8a8484611a6c565b81898b6001600160a01b031660008051602061290583398151915284604051610fcc91906127ce565b60405180910390a450508080610fe19061285b565b915050610f2e565b50866001600160a01b0316886001600160a01b0316826001600160a01b03166000805160206128a583398151915288888888604051610be894939291906123af565b63f23a6e6160e01b9695505050505050565b6001600160a01b0385166110635760405162461bcd60e51b8152600401610209906123eb565b336001600160a01b0387168114806110a057506001600160a01b038088166000908152600d602090815260408083209385168352929052205460ff165b806110b357506001600160a01b03811630145b6110cf5760405162461bcd60e51b815260040161020990612720565b6110da87868661176b565b6110e58686866116a7565b856001600160a01b0316876001600160a01b0316826001600160a01b03166000805160206128c583398151915288886040516111229291906127d7565b60405180910390a461116e818888888888888080601f016020809104026020016040519081016040528093929190818152602001838380828437600092019190915250611b4e92505050565b50505050505050565b6001600160a01b038216301415611253576000818152600860205260409020546001600160a01b039081169084168114806111d757506001600160a01b038082166000908152600d602090815260408083209388168352929052205460ff165b806111fb57506000828152600e60205260409020546001600160a01b038581169116145b6112175760405162461bcd60e51b815260040161020990612720565b600082815260086020526040902054600160a01b900460ff161561124d5760405162461bcd60e51b81526004016102099061243a565b50611422565b6040516331a9108f60e11b81526000906001600160a01b03841690636352211e906112829085906004016127ce565b60206040518083038186803b15801561129a57600080fd5b505afa1580156112ae573d6000803e3d6000fd5b505050506040513d601f19601f820116820180604052508101906112d29190611c99565b9050836001600160a01b0316816001600160a01b031614806113805750836001600160a01b0316836001600160a01b031663081812fc846040518263ffffffff1660e01b815260040161132591906127ce565b60206040518083038186803b15801561133d57600080fd5b505afa158015611351573d6000803e3d6000fd5b505050506040513d601f19601f820116820180604052508101906113759190611c99565b6001600160a01b0316145b80611404575060405163e985e9c560e01b81526001600160a01b0384169063e985e9c5906113b490849088906004016122ee565b60206040518083038186803b1580156113cc57600080fd5b505afa1580156113e0573d6000803e3d6000fd5b505050506040513d601f19601f820116820180604052508101906114049190612227565b6114205760405162461bcd60e51b815260040161020990612720565b505b505050565b6000611431611c0b565b6001600160a01b03861660009081526020828152604080832088845282528083208784529091529020549091508083111561147e5760405162461bcd60e51b8152600401610209906124e8565b6114888382612844565b6001600160a01b0387166000908152602084815260408083208984528252808320888452909152902081905590508061169f576001600160a01b0386166000908152600383016020908152604080832088845282528083208784529091528120546114f590600190612844565b6001600160a01b03881660009081526001858101602090815260408084208b8552909152822054929350909161152b9190612844565b9050808214611617576001600160a01b038816600090815260018501602090815260408083208a8452909152812080548390811061157957634e487b7160e01b600052603260045260246000fd5b60009182526020808320909101546001600160a01b038c16835260018801825260408084208c85529092529120805491925061ffff831691859081106115cf57634e487b7160e01b600052603260045260246000fd5b6000918252602090912001556115e683600161282c565b6001600160a01b038a16600090815260038701602090815260408083208c8452825280832094835293905291909120555b6001600160a01b038816600090815260018501602090815260408083208a8452909152902080548061165957634e487b7160e01b600052603160045260246000fd5b6000828152602080822083016000199081018390559092019092556001600160a01b038a16825260038601815260408083208a8452825280832089845290915281205550505b505050505050565b60006116b1611c0b565b6001600160a01b038516600090815260058201602090815260408083208784529091528120805492935084929091906116eb90849061282c565b90915550506001600160a01b03841660009081526007820160209081526040808320868452909152902054611420576001600160a01b03841660008181526006830160209081526040808320805460018101825581855283852061ffff8a1691015593835292546007850182528383208784529091529190205550505050565b6000611775611c0b565b6001600160a01b03851660009081526005820160209081526040808320878452909152902054909150808311156117be5760405162461bcd60e51b815260040161020990612497565b6117c88382612844565b6001600160a01b0386166000908152600584016020908152604080832088845290915290208190559050806119a4576001600160a01b0385166000908152600783016020908152604080832087845290915281205461182990600190612844565b6001600160a01b03871660009081526006850160205260408120549192509061185490600190612844565b905080821461192f576001600160a01b0387166000908152600685016020526040812080548390811061189757634e487b7160e01b600052603260045260246000fd5b906000526020600020015490508061ffff168560060160008a6001600160a01b03166001600160a01b0316815260200190815260200160002084815481106118ef57634e487b7160e01b600052603260045260246000fd5b60009182526020909120015561190683600161282c565b6001600160a01b0389166000908152600787016020908152604080832094835293905291909120555b6001600160a01b0387166000908152600685016020526040902080548061196657634e487b7160e01b600052603160045260246000fd5b6000828152602080822083016000199081018390559092019092556001600160a01b0389168252600786018152604080832089845290915281205550505b5050505050565b853b80156104c25760405163bc197c8160e01b81526001600160a01b0388169063bc197c81906119eb908c908c908b908b908b908b908b90600401612308565b602060405180830381600087803b158015611a0557600080fd5b505af1158015611a19573d6000803e3d6000fd5b505050506040513d601f19601f82011682018060405250810190611a3d9190612247565b6001600160e01b03191663bc197c8160e01b146104c25760405162461bcd60e51b815260040161020990612683565b6000611a76611c0b565b6001600160a01b0386166000908152602082815260408083208884528252808320878452909152812080549293508492909190611ab490849061282c565b90915550506001600160a01b0385166000908152600382016020908152604080832087845282528083208684529091529020546119a4576001600160a01b038516600081815260018084016020908152604080842089855282528084208054938401815580855282852061ffff8a169401939093559154938352600385018152818320888452815281832087845290529020555050505050565b833b801561116e5760405163f23a6e6160e01b81526001600160a01b0386169063f23a6e6190611b8a908a908a9089908990899060040161236a565b602060405180830381600087803b158015611ba457600080fd5b505af1158015611bb8573d6000803e3d6000fd5b505050506040513d601f19601f82011682018060405250810190611bdc9190612247565b6001600160e01b03191663f23a6e6160e01b1461116e5760405162461bcd60e51b815260040161020990612683565b600090565b60008083601f840112611c21578182fd5b50813567ffffffffffffffff811115611c38578182fd5b6020830191508360208083028501011115611c5257600080fd5b9250929050565b60008083601f840112611c6a578182fd5b50813567ffffffffffffffff811115611c81578182fd5b602083019150836020828501011115611c5257600080fd5b600060208284031215611caa578081fd5b8151611cb58161288c565b9392505050565b60008060008060008060008060a0898b031215611cd7578384fd5b8835611ce28161288c565b97506020890135611cf28161288c565b9650604089013567ffffffffffffffff80821115611d0e578586fd5b611d1a8c838d01611c10565b909850965060608b0135915080821115611d32578586fd5b611d3e8c838d01611c10565b909650945060808b0135915080821115611d56578384fd5b50611d638b828c01611c10565b999c989b5096995094979396929594505050565b60008060008060008060008060a0898b031215611d92578384fd5b8835611d9d8161288c565b97506020890135611dad8161288c565b9650604089013567ffffffffffffffff80821115611dc9578586fd5b611dd58c838d01611c10565b909850965060608b0135915080821115611ded578586fd5b611df98c838d01611c10565b909650945060808b0135915080821115611e11578384fd5b50611d638b828c01611c59565b600080600080600080600060a0888a031215611e38578283fd5b8735611e438161288c565b96506020880135611e538161288c565b955060408801359450606088013567ffffffffffffffff80821115611e76578485fd5b611e828b838c01611c10565b909650945060808a0135915080821115611e9a578384fd5b50611ea78a828b01611c10565b989b979a50959850939692959293505050565b60008060008060008060a08789031215611ed2578182fd5b8635611edd8161288c565b95506020870135611eed8161288c565b94506040870135935060608701359250608087013567ffffffffffffffff811115611f16578283fd5b611f2289828a01611c59565b979a9699509497509295939492505050565b600080600080600060a08688031215611f4b578081fd5b8535611f568161288c565b94506020860135611f668161288c565b94979496505050506040830135926060810135926080909101359150565b600080600080600060608688031215611f9b578081fd5b8535611fa68161288c565b9450602086013567ffffffffffffffff80821115611fc2578283fd5b611fce89838a01611c10565b90965094506040880135915080821115611fe6578283fd5b50611ff388828901611c10565b969995985093965092949392505050565b600080600080600080600060a0888a03121561201e578081fd5b87356120298161288c565b96506020880135955060408801356120408161288c565b9450606088013567ffffffffffffffff8082111561205c578283fd5b6120688b838c01611c10565b909650945060808a0135915080821115611e9a578283fd5b60008060008060008060008060c0898b03121561209b578182fd5b88356120a68161288c565b97506020890135965060408901356120bd8161288c565b955060608901359450608089013567ffffffffffffffff808211156120e0578384fd5b6120ec8c838d01611c10565b909650945060a08b0135915080821115611d56578384fd5b600080600080600060a0868803121561211b578283fd5b85356121268161288c565b945060208601359350604086013561213d8161288c565b94979396509394606081013594506080013592915050565b60008060008060008060c0878903121561216d578384fd5b86356121788161288c565b955060208701359450604087013561218f8161288c565b959894975094956060810135955060808101359460a0909101359350915050565b600080600080600080608087890312156121c8578384fd5b86356121d38161288c565b955060208701359450604087013567ffffffffffffffff808211156121f6578586fd5b6122028a838b01611c10565b9096509450606089013591508082111561221a578384fd5b50611f2289828a01611c10565b600060208284031215612238578081fd5b81518015158114611cb5578182fd5b600060208284031215612258578081fd5b81516001600160e01b031981168114611cb5578182fd5b81835260006001600160fb1b03831115612287578081fd5b6020830280836020870137939093016020019283525090919050565b60008151808452815b818110156122c8576020818501810151868301820152016122ac565b818111156122d95782602083870101525b50601f01601f19169290920160200192915050565b6001600160a01b0392831681529116602082015260400190565b6001600160a01b0388811682528716602082015260a060408201819052600090612335908301878961226f565b828103606084015261234881868861226f565b9050828103608084015261235c81856122a3565b9a9950505050505050505050565b6001600160a01b03868116825285166020820152604081018490526060810183905260a0608082018190526000906123a4908301846122a3565b979650505050505050565b6000604082526123c360408301868861226f565b82810360208401526123a481858761226f565b6001600160e01b031991909116815260200190565b6020808252602f908201527f4368616c6c656e6765735472616e736665723a2043616e2774207472616e736660408201526e657220746f2030206164647265737360881b606082015260800190565b60208082526037908201527f4368616c6c656e6765735472616e736665723a204f6e6c792063616c6c61626c60408201527f65206f6e20756e6c6f636b656420446174686c65746573000000000000000000606082015260800190565b60208082526031908201527f4c69624368616c6c656e6765733a20446f65736e2774206861766520746861746040820152701036b0b73c903a37903a3930b739b332b960791b606082015260800190565b6020808252602e908201527f4368616c6c656e6765733a20446f65736e277420686176652074686174206d6160408201526d373c903a37903a3930b739b332b960911b606082015260800190565b6020808252603c908201527f4368616c6c656e6765735472616e736665723a206964732e6c656e677468206e60408201527f6f74207468652073616d652061732076616c7565732e6c656e67746800000000606082015260800190565b6020808252603e908201527f4c696241707053746f726167653a206f6e6c7920616e204368616c6c656e676560408201527f4d616e616765722063616e2063616c6c20746869732066756e6374696f6e0000606082015260800190565b602080825260409082018190527f4368616c6c656e6765735472616e736665723a206964732e6c656e677468206e908201527f6f74207468652073616d6520617320746f546f6b656e496473206c656e677468606082015260800190565b6020808252818101527f446174686c65746520686173206e6f74206265656e2073616372696669636564604082015260600190565b6020808252602a908201527f5765617261626c65733a205472616e736665722072656a65637465642f6661696040820152696c6564206279205f746f60b01b606082015260800190565b60208082526033908201527f4368616c6c656e6765735472616e736665723a204368616c6c656e67652063616040820152721b9b9bdd081899481d1c985b9cd9995c9c9959606a1b606082015260800190565b6020808252603a908201527f4368616c6c656e6765735472616e736665723a204e6f74206f776e657220616e60408201527f64206e6f7420617070726f76656420746f207472616e73666572000000000000606082015260800190565b60208082526031908201527f4368616c6c656e6765735472616e736665723a20696473206e6f742073616d65604082015270206c656e6774682061732076616c75657360781b606082015260800190565b90815260200190565b918252602082015260400190565b6000808335601e198436030181126127fb578283fd5b83018035915067ffffffffffffffff821115612815578283fd5b6020908101925081023603821315611c5257600080fd5b6000821982111561283f5761283f612876565b500190565b60008282101561285657612856612876565b500390565b600060001982141561286f5761286f612876565b5060010190565b634e487b7160e01b600052601160045260246000fd5b6001600160a01b03811681146128a157600080fd5b5056fe4a39dc06d4c0dbc64b70af90fd698a233a518aa5d07e595d983b8c0526c8f7fbc3d58168c5ae7397731d063d5bbf3d657854427343f4c083240f7aacaa2d0f624b287e36a0531da8ccee303de127c778302f48d8fc9569b1fe1dcb9d64465c6de82810099d182b25e23e895715954d6e7b41867a02e2c693cce68a8f250e43d3a26469706673582212202586bccc1f18f020dfb84f4e0f555bbdddd0518c6064cbd66fda844db35b929e64736f6c63430008010033",
  "linkReferences": {},
  "deployedLinkReferences": {}
}