{
  "_format": "hh-sol-artifact-1",
  "contractName": "DAOFacet",
  "sourceName": "contracts/facets/DAOFacet.sol",
  "abi": [
    {
      "anonymous": false,
      "inputs": [
        {
          "components": [
            {
              "internalType": "string",
              "name": "name",
              "type": "string"
            },
            {
              "internalType": "string",
              "name": "description",
              "type": "string"
            },
            {
              "internalType": "uint256",
              "name": "maxQuantity",
              "type": "uint256"
            },
            {
              "internalType": "uint256",
              "name": "totalQuantity",
              "type": "uint256"
            },
            {
              "internalType": "uint32",
              "name": "id",
              "type": "uint32"
            },
            {
              "internalType": "bool",
              "name": "canPurchaseWithPrtcle",
              "type": "bool"
            },
            {
              "internalType": "uint256",
              "name": "prtclePrice",
              "type": "uint256"
            },
            {
              "internalType": "bool",
              "name": "canBeTransferred",
              "type": "bool"
            }
          ],
          "indexed": false,
          "internalType": "struct ChallengeType",
          "name": "_challengeType",
          "type": "tuple"
        }
      ],
      "name": "AddChallengeType",
      "type": "event"
    },
    {
      "anonymous": false,
      "inputs": [
        {
          "indexed": true,
          "internalType": "address",
          "name": "newChallengeManager_",
          "type": "address"
        }
      ],
      "name": "ChallengeManagerAdded",
      "type": "event"
    },
    {
      "anonymous": false,
      "inputs": [
        {
          "indexed": true,
          "internalType": "address",
          "name": "challengeManager_",
          "type": "address"
        }
      ],
      "name": "ChallengeManagerRemoved",
      "type": "event"
    },
    {
      "anonymous": false,
      "inputs": [
        {
          "indexed": false,
          "internalType": "uint256[]",
          "name": "_challengeIds",
          "type": "uint256[]"
        },
        {
          "indexed": false,
          "internalType": "uint256[]",
          "name": "_maxQuanities",
          "type": "uint256[]"
        }
      ],
      "name": "ChallengeTypeMaxQuantity",
      "type": "event"
    },
    {
      "anonymous": false,
      "inputs": [
        {
          "indexed": true,
          "internalType": "uint256",
          "name": "_seasonId",
          "type": "uint256"
        },
        {
          "indexed": false,
          "internalType": "uint256",
          "name": "_seasonMaxSize",
          "type": "uint256"
        },
        {
          "indexed": false,
          "internalType": "uint256",
          "name": "_dathletePrice",
          "type": "uint256"
        }
      ],
      "name": "CreateSeason",
      "type": "event"
    },
    {
      "anonymous": false,
      "inputs": [
        {
          "indexed": true,
          "internalType": "address",
          "name": "previousDao",
          "type": "address"
        },
        {
          "indexed": true,
          "internalType": "address",
          "name": "newDao",
          "type": "address"
        }
      ],
      "name": "DaoTransferred",
      "type": "event"
    },
    {
      "anonymous": false,
      "inputs": [
        {
          "indexed": true,
          "internalType": "address",
          "name": "previousDaoTreasury",
          "type": "address"
        },
        {
          "indexed": true,
          "internalType": "address",
          "name": "newDaoTreasury",
          "type": "address"
        }
      ],
      "name": "DaoTreasuryTransferred",
      "type": "event"
    },
    {
      "anonymous": false,
      "inputs": [
        {
          "indexed": false,
          "internalType": "uint256",
          "name": "_challengeId",
          "type": "uint256"
        },
        {
          "indexed": false,
          "internalType": "uint256",
          "name": "_priceInWei",
          "type": "uint256"
        }
      ],
      "name": "UpdateChallengePrice",
      "type": "event"
    },
    {
      "inputs": [
        {
          "internalType": "address[]",
          "name": "_newChallengeManagers",
          "type": "address[]"
        }
      ],
      "name": "addChallengeManagers",
      "outputs": [],
      "stateMutability": "nonpayable",
      "type": "function"
    },
    {
      "inputs": [
        {
          "components": [
            {
              "internalType": "string",
              "name": "name",
              "type": "string"
            },
            {
              "internalType": "string",
              "name": "description",
              "type": "string"
            },
            {
              "internalType": "uint256",
              "name": "maxQuantity",
              "type": "uint256"
            },
            {
              "internalType": "uint256",
              "name": "totalQuantity",
              "type": "uint256"
            },
            {
              "internalType": "uint32",
              "name": "id",
              "type": "uint32"
            },
            {
              "internalType": "bool",
              "name": "canPurchaseWithPrtcle",
              "type": "bool"
            },
            {
              "internalType": "uint256",
              "name": "prtclePrice",
              "type": "uint256"
            },
            {
              "internalType": "bool",
              "name": "canBeTransferred",
              "type": "bool"
            }
          ],
          "internalType": "struct ChallengeType[]",
          "name": "_challengeTypes",
          "type": "tuple[]"
        }
      ],
      "name": "addChallengeTypes",
      "outputs": [],
      "stateMutability": "nonpayable",
      "type": "function"
    },
    {
      "inputs": [
        {
          "internalType": "uint256[]",
          "name": "_challengeIds",
          "type": "uint256[]"
        },
        {
          "internalType": "uint256[]",
          "name": "_newPrices",
          "type": "uint256[]"
        }
      ],
      "name": "batchUpdateChallengesPrice",
      "outputs": [],
      "stateMutability": "nonpayable",
      "type": "function"
    },
    {
      "inputs": [
        {
          "internalType": "uint24",
          "name": "_seasonMaxSize",
          "type": "uint24"
        },
        {
          "internalType": "uint96",
          "name": "_dathletePrice",
          "type": "uint96"
        }
      ],
      "name": "createSeason",
      "outputs": [
        {
          "internalType": "uint256",
          "name": "seasonId_",
          "type": "uint256"
        }
      ],
      "stateMutability": "nonpayable",
      "type": "function"
    },
    {
      "inputs": [
        {
          "components": [
            {
              "internalType": "uint24",
              "name": "_seasonMaxSize",
              "type": "uint24"
            },
            {
              "internalType": "uint96",
              "name": "_dathletePrice",
              "type": "uint96"
            }
          ],
          "internalType": "struct DAOFacet.CreateSeasonPayload",
          "name": "_payload",
          "type": "tuple"
        }
      ],
      "name": "createSeasonWithPayload",
      "outputs": [
        {
          "internalType": "uint256",
          "name": "seasonId_",
          "type": "uint256"
        }
      ],
      "stateMutability": "nonpayable",
      "type": "function"
    },
    {
      "inputs": [
        {
          "internalType": "address",
          "name": "_to",
          "type": "address"
        },
        {
          "internalType": "uint256[]",
          "name": "_challengeIds",
          "type": "uint256[]"
        },
        {
          "internalType": "uint256[]",
          "name": "_quantities",
          "type": "uint256[]"
        }
      ],
      "name": "mintChallenges",
      "outputs": [],
      "stateMutability": "nonpayable",
      "type": "function"
    },
    {
      "inputs": [
        {
          "internalType": "address[]",
          "name": "_challengeManagers",
          "type": "address[]"
        }
      ],
      "name": "removeChallengeManagers",
      "outputs": [],
      "stateMutability": "nonpayable",
      "type": "function"
    },
    {
      "inputs": [
        {
          "internalType": "address",
          "name": "_newDao",
          "type": "address"
        },
        {
          "internalType": "address",
          "name": "_newDaoTreasury",
          "type": "address"
        }
      ],
      "name": "setDao",
      "outputs": [],
      "stateMutability": "nonpayable",
      "type": "function"
    },
    {
      "inputs": [
        {
          "internalType": "uint256[]",
          "name": "_challengeIds",
          "type": "uint256[]"
        },
        {
          "internalType": "uint256[]",
          "name": "_maxQuantities",
          "type": "uint256[]"
        }
      ],
      "name": "updateChallengeTypeMaxQuantity",
      "outputs": [],
      "stateMutability": "nonpayable",
      "type": "function"
    }
  ],
  "bytecode": "0x608060405234801561001057600080fd5b50611be8806100206000396000f3fe608060405234801561001057600080fd5b50600436106100935760003560e01c80634bfff6c5116100665780634bfff6c5146100fc578063773c17aa1461010f57806381d436d114610122578063e6bfe35814610135578063ed6ab4b01461014857610093565b8063082f07fa146100985780630fb5d5bb146100c157806325cddfa9146100d657806332037075146100e9575b600080fd5b6100ab6100a6366004611517565b61015b565b6040516100b89190611ad6565b60405180910390f35b6100d46100cf366004611309565b610292565b005b6100d46100e43660046112c9565b6102d3565b6100d46100f73660046112c9565b6103cb565b6100d461010a366004611455565b6104f5565b6100d461011d366004611219565b61065d565b6100d4610130366004611455565b61074f565b6100ab6101433660046114e6565b6108ec565b6100d461015636600461124b565b610a4f565b60145460009033906001600160a01b0316811480610191575061017c610ca3565b6001600160a01b0316816001600160a01b0316145b6101b65760405162461bcd60e51b81526004016101ad906116d0565b60405180910390fd5b600f54640100000000900461ffff166000818152600460205260409020805460029091015462ffffff16146101fd5760405162461bcd60e51b81526004016101ad9061195d565b610208816001611b1e565b600f805465ffff00000000191664010000000061ffff8416021790556000818152600460205260409081902062ffffff881681556001600160601b038716600191909101555190935083907fd92d16fe12c7fd66d7dd043fd41309a4543ac11c8040e4c348481e8bb8cef658906102829088908890611ab8565b60405180910390a2505092915050565b3360008181526016602052604090205460ff1615156001146102c65760405162461bcd60e51b81526004016101ad90611803565b6102cf82610cbf565b5050565b60145433906001600160a01b031681148061030657506102f1610ca3565b6001600160a01b0316816001600160a01b0316145b6103225760405162461bcd60e51b81526004016101ad906116d0565b60005b828110156103c557600084848381811061034f57634e487b7160e01b600052603260045260246000fd5b905060200201602081019061036491906111f8565b6001600160a01b038116600081815260166020526040808220805460ff191660011790555192935090917f211868720f4dfe85e57dc0cd6cc0d41a2ed55c519e4d1fca8bbdc5ae2c0c41309190a250806103bd81611b6b565b915050610325565b50505050565b60145433906001600160a01b03168114806103fe57506103e9610ca3565b6001600160a01b0316816001600160a01b0316145b61041a5760405162461bcd60e51b81526004016101ad906116d0565b60005b828110156103c557600084848381811061044757634e487b7160e01b600052603260045260246000fd5b905060200201602081019061045c91906111f8565b6001600160a01b03811660009081526016602052604090205490915060ff16151560011461049c5760405162461bcd60e51b81526004016101ad90611711565b6001600160a01b038116600081815260166020526040808220805460ff19169055517f672784e014d4bfc7ede00ab80c0f622ab17eb722f878360a07fb2d64388f32b59190a250806104ed81611b6b565b91505061041d565b3360008181526016602052604090205460ff1615156001146105295760405162461bcd60e51b81526004016101ad90611803565b8382146105485760405162461bcd60e51b81526004016101ad90611860565b60005b8481101561065557600086868381811061057557634e487b7160e01b600052603260045260246000fd5b90506020020135905060008060020182815481106105a357634e487b7160e01b600052603260045260246000fd5b906000526020600020906007020190508585848181106105d357634e487b7160e01b600052603260045260246000fd5b60200291909101356005830155507f42d4f4d7770d3cb2e75227c2122115f6e33aa3bfc2c46a7a7e7d16269230c54e8287878681811061062357634e487b7160e01b600052603260045260246000fd5b90506020020135604051610638929190611adf565b60405180910390a15050808061064d90611b6b565b91505061054b565b505050505050565b60145433906001600160a01b0316811480610690575061067b610ca3565b6001600160a01b0316816001600160a01b0316145b6106ac5760405162461bcd60e51b81526004016101ad906116d0565b6014546040516001600160a01b038086169216907f80e372951996d4eaf55bac69d189ad3c5f3992dc8f486d85c2c7abfffe09f99d90600090a36015546040516001600160a01b038085169216907f8dda99f4c0976732c5a97f50fdbc947bf07b9aef1a4745bcc8ab59b5302f6b8690600090a350601480546001600160a01b039384166001600160a01b03199182161790915560158054929093169116179055565b3360008181526016602052604090205460ff1615156001146107835760405162461bcd60e51b81526004016101ad90611803565b8382146107a25760405162461bcd60e51b81526004016101ad906119b3565b60005b848110156108a75760008686838181106107cf57634e487b7160e01b600052603260045260246000fd5b90506020020135905060008585848181106107fa57634e487b7160e01b600052603260045260246000fd5b9050602002013590506000600201828154811061082757634e487b7160e01b600052603260045260246000fd5b9060005260206000209060070201600301548110156108585760405162461bcd60e51b81526004016101ad90611900565b806000600201838154811061087d57634e487b7160e01b600052603260045260246000fd5b9060005260206000209060070201600201819055505050808061089f90611b6b565b9150506107a5565b507f1f7c97adf215d34958013e81f34302eee025aaa7550dca3d13ffb1bd7a99f484858585856040516108dd9493929190611641565b60405180910390a15050505050565b3360008181526016602052604081205490919060ff1615156001146109235760405162461bcd60e51b81526004016101ad90611803565b600f54640100000000900461ffff166000818152600460205260409020805460029091015462ffffff161461096a5760405162461bcd60e51b81526004016101ad9061195d565b610975816001611b1e565b600f805465ffff00000000191664010000000061ffff84160217905592506109a060208501856114fd565b60008481526004602090815260409182902062ffffff939093169092556109cc91908601908601611540565b60008481526004602090815260409091206001600160601b039290921660019092019190915583907fd92d16fe12c7fd66d7dd043fd41309a4543ac11c8040e4c348481e8bb8cef65890610a22908701876114fd565b610a326040880160208901611540565b604051610a40929190611ab8565b60405180910390a25050919050565b3360008181526016602052604090205460ff161515600114610a835760405162461bcd60e51b81526004016101ad90611803565b838214610aa25760405162461bcd60e51b81526004016101ad9061176e565b600254339060005b86811015610c1c576000888883818110610ad457634e487b7160e01b600052603260045260246000fd5b905060200201359050808311610afc5760405162461bcd60e51b81526004016101ad906117bc565b6000878784818110610b1e57634e487b7160e01b600052603260045260246000fd5b90506020020135905060008160006002018481548110610b4e57634e487b7160e01b600052603260045260246000fd5b906000526020600020906007020160030154610b6a9190611b1e565b905060006002018381548110610b9057634e487b7160e01b600052603260045260246000fd5b906000526020600020906007020160020154811115610bc15760405162461bcd60e51b81526004016101ad90611673565b610bcc8c8484610e88565b8060006002018481548110610bf157634e487b7160e01b600052603260045260246000fd5b9060005260206000209060070201600301819055505050508080610c1490611b6b565b915050610aaa565b50876001600160a01b031660006001600160a01b0316836001600160a01b03167f4a39dc06d4c0dbc64b70af90fd698a233a518aa5d07e595d983b8c0526c8f7fb8a8a8a8a604051610c719493929190611641565b60405180910390a4610c998260008a8a8a8a8a60405180602001604052806000815250610f4c565b5050505050505050565b6000610cad611018565b600401546001600160a01b0316919050565b60025460005b8251811015610e8357600082610cda81611b6b565b935090506000600201848381518110610d0357634e487b7160e01b600052603260045260246000fd5b602090810291909101810151825460018101845560009384529282902081518051929460070290910192610d3c92849290910190611041565b506020828101518051610d559260018501920190611041565b506040820151600282015560608201516003820155608082015160048201805460a085015163ffffffff1990911663ffffffff9093169290921764ff0000000019166401000000009215159290920291909117905560c0820151600582015560e0909101516006909101805460ff191691151591909117905583517fb082f69f06243de21470fa8ca715b61f9f99cf368a4a5be9dabedd0cddb07e2d90859084908110610e1257634e487b7160e01b600052603260045260246000fd5b6020026020010151604051610e279190611a1d565b60405180910390a1604051600090819033907fc3d58168c5ae7397731d063d5bbf3d657854427343f4c083240f7aacaa2d0f6290610e689086908590611adf565b60405180910390a45080610e7b81611b6b565b915050610cc5565b505050565b6000610e9261103c565b6001600160a01b03851660009081526005820160209081526040808320878452909152812080549293508492909190610ecc908490611b1e565b90915550506001600160a01b038416600090815260078201602090815260408083208684529091529020546103c5576001600160a01b03841660008181526006830160209081526040808320805460018101825581855283852061ffff8a1691015593835292546007850182528383208784529091529190205550505050565b853b801561100d5760405163bc197c8160e01b81526001600160a01b0388169063bc197c8190610f8c908c908c908b908b908b908b908b906004016115df565b602060405180830381600087803b158015610fa657600080fd5b505af1158015610fba573d6000803e3d6000fd5b505050506040513d601f19601f82011682018060405250810190610fde91906114be565b6001600160e01b03191663bc197c8160e01b1461100d5760405162461bcd60e51b81526004016101ad906118b6565b505050505050505050565b7fc8fcad8db84d3cc18b4c41d551ea0ee66dd599cde068d998e57d5e09332c131c90565b600090565b82805461104d90611b36565b90600052602060002090601f01602090048101928261106f57600085556110b5565b82601f1061108857805160ff19168380011785556110b5565b828001600101855582156110b5579182015b828111156110b557825182559160200191906001019061109a565b506110c19291506110c5565b5090565b5b808211156110c157600081556001016110c6565b80356001600160a01b03811681146110f157600080fd5b919050565b60008083601f840112611107578182fd5b50813567ffffffffffffffff81111561111e578182fd5b602083019150836020808302850101111561113857600080fd5b9250929050565b803580151581146110f157600080fd5b600082601f83011261115f578081fd5b813567ffffffffffffffff81111561117957611179611b9c565b61118c601f8201601f1916602001611aed565b8181528460208386010111156111a0578283fd5b816020850160208301379081016020019190915292915050565b803562ffffff811681146110f157600080fd5b803563ffffffff811681146110f157600080fd5b80356001600160601b03811681146110f157600080fd5b600060208284031215611209578081fd5b611212826110da565b9392505050565b6000806040838503121561122b578081fd5b611234836110da565b9150611242602084016110da565b90509250929050565b600080600080600060608688031215611262578081fd5b61126b866110da565b9450602086013567ffffffffffffffff80821115611287578283fd5b61129389838a016110f6565b909650945060408801359150808211156112ab578283fd5b506112b8888289016110f6565b969995985093965092949392505050565b600080602083850312156112db578182fd5b823567ffffffffffffffff8111156112f1578283fd5b6112fd858286016110f6565b90969095509350505050565b6000602080838503121561131b578182fd5b823567ffffffffffffffff80821115611332578384fd5b818501915085601f830112611345578384fd5b81358181111561135757611357611b9c565b6113648485830201611aed565b81815284810190848601875b84811015611446578135870161010080601f19838f03011215611391578a8bfd5b61139a81611aed565b8a830135898111156113aa578c8dfd5b6113b88f8d8387010161114f565b8252506040830135898111156113cc578c8dfd5b6113da8f8d8387010161114f565b8c83015250606083013560408201526080830135606082015260a06114008185016111cd565b608083015260c061141281860161113f565b8284015260e0915081850135818401525061142e83850161113f565b90820152865250509287019290870190600101611370565b50909998505050505050505050565b6000806000806040858703121561146a578384fd5b843567ffffffffffffffff80821115611481578586fd5b61148d888389016110f6565b909650945060208701359150808211156114a5578384fd5b506114b2878288016110f6565b95989497509550505050565b6000602082840312156114cf578081fd5b81516001600160e01b031981168114611212578182fd5b6000604082840312156114f7578081fd5b50919050565b60006020828403121561150e578081fd5b611212826111ba565b60008060408385031215611529578081fd5b611532836111ba565b9150611242602084016111e1565b600060208284031215611551578081fd5b611212826111e1565b81835260006001600160fb1b03831115611572578081fd5b6020830280836020870137939093016020019283525090919050565b15159052565b60008151808452815b818110156115b95760208185018101518683018201520161159d565b818111156115ca5782602083870101525b50601f01601f19169290920160200192915050565b6001600160a01b0388811682528716602082015260a06040820181905260009061160c908301878961155a565b828103606084015261161f81868861155a565b905082810360808401526116338185611594565b9a9950505050505050505050565b60006040825261165560408301868861155a565b828103602084015261166881858761155a565b979650505050505050565b6020808252603c908201527f44414f46616365743a20546f74616c206368616c6c656e67652074797065207160408201527f75616e746974792065786365656473206d6178207175616e7469747900000000606082015260800190565b60208082526021908201527f4c696241707053746f726167653a20446f206e6f7420686176652061636365736040820152607360f81b606082015260800190565b6020808252603c908201527f44414f46616365743a206368616c6c656e67654d616e6167657220646f65732060408201527f6e6f74206578697374206f7220616c72656164792072656d6f76656400000000606082015260800190565b6020808252602e908201527f44414f46616365743a2049647320616e64207175616e746974696573206c656e60408201526d0cee8d040daeae6e840dac2e8c6d60931b606082015260800190565b60208082526027908201527f44414f46616365743a204368616c6c656e6765207479706520646f6573206e6f6040820152661d08195e1a5cdd60ca1b606082015260800190565b6020808252603e908201527f4c696241707053746f726167653a206f6e6c7920616e204368616c6c656e676560408201527f4d616e616765722063616e2063616c6c20746869732066756e6374696f6e0000606082015260800190565b60208082526036908201527f44414f46616365743a204368616c6c656e676573206d757374206265207468656040820152752073616d65206c656e6774682061732070726963657360501b606082015260800190565b6020808252602a908201527f5765617261626c65733a205472616e736665722072656a65637465642f6661696040820152696c6564206279205f746f60b01b606082015260800190565b60208082526037908201527f44414f46616365743a206d61785175616e74697479206973206772656174657260408201527f207468616e206578697374696e67207175616e74697479000000000000000000606082015260800190565b60208082526036908201527f446174686c65746546616365743a20536561736f6e206d7573742062652066756040820152756c6c206265666f7265206372656174696e67206e657760501b606082015260800190565b60208082526044908201527f44414f46616365743a205f6368616c6c656e6765496473206c656e677468206e60408201527f6f74207468652073616d65206173205f6e65775175616e746974696573206c656060820152630dccee8d60e31b608082015260a00190565b6000602082528251610100806020850152611a3c610120850183611594565b91506020850151601f19858403016040860152611a598382611594565b925050604085015160608501526060850151608085015263ffffffff60808601511660a085015260a0850151611a9260c086018261158e565b5060c085015160e085015260e0850151611aae8286018261158e565b5090949350505050565b62ffffff9290921682526001600160601b0316602082015260400190565b90815260200190565b918252602082015260400190565b604051601f8201601f1916810167ffffffffffffffff81118282101715611b1657611b16611b9c565b604052919050565b60008219821115611b3157611b31611b86565b500190565b600281046001821680611b4a57607f821691505b602082108114156114f757634e487b7160e01b600052602260045260246000fd5b6000600019821415611b7f57611b7f611b86565b5060010190565b634e487b7160e01b600052601160045260246000fd5b634e487b7160e01b600052604160045260246000fdfea2646970667358221220fd0c776a4f83cfdf7f916810ddf82814f6bb3bc1e71299466348aacc0543f35f64736f6c63430008010033",
  "linkReferences": {},
  "deployedLinkReferences": {}
}